{
  "contractName": "subscribe",
  "abi": [
    {
      "inputs": [],
      "stateMutability": "nonpayable",
      "type": "constructor"
    },
    {
      "anonymous": false,
      "inputs": [
        {
          "indexed": false,
          "internalType": "uint256",
          "name": "i",
          "type": "uint256"
        }
      ],
      "name": "network_ready",
      "type": "event"
    },
    {
      "anonymous": false,
      "inputs": [
        {
          "indexed": false,
          "internalType": "uint256",
          "name": "i",
          "type": "uint256"
        },
        {
          "indexed": false,
          "internalType": "string",
          "name": "info",
          "type": "string"
        }
      ],
      "name": "newRequest",
      "type": "event"
    },
    {
      "anonymous": false,
      "inputs": [
        {
          "indexed": false,
          "internalType": "uint256",
          "name": "i",
          "type": "uint256"
        }
      ],
      "name": "operationThrown",
      "type": "event"
    },
    {
      "anonymous": false,
      "inputs": [
        {
          "indexed": false,
          "internalType": "uint256",
          "name": "i",
          "type": "uint256"
        }
      ],
      "name": "operation_finished",
      "type": "event"
    },
    {
      "anonymous": false,
      "inputs": [
        {
          "indexed": false,
          "internalType": "uint256",
          "name": "i",
          "type": "uint256"
        }
      ],
      "name": "playersFilled",
      "type": "event"
    },
    {
      "anonymous": false,
      "inputs": [
        {
          "indexed": false,
          "internalType": "uint256",
          "name": "i",
          "type": "uint256"
        },
        {
          "indexed": false,
          "internalType": "string",
          "name": "info",
          "type": "string"
        }
      ],
      "name": "updatedRequest",
      "type": "event"
    },
    {
      "inputs": [],
      "name": "last",
      "outputs": [
        {
          "internalType": "uint256",
          "name": "",
          "type": "uint256"
        }
      ],
      "stateMutability": "view",
      "type": "function",
      "constant": true
    },
    {
      "inputs": [
        {
          "internalType": "uint256",
          "name": "i",
          "type": "uint256"
        }
      ],
      "name": "return_state",
      "outputs": [
        {
          "internalType": "enum subscribe.StateType",
          "name": "",
          "type": "uint8"
        },
        {
          "internalType": "string",
          "name": "",
          "type": "string"
        },
        {
          "internalType": "string",
          "name": "",
          "type": "string"
        },
        {
          "internalType": "uint256",
          "name": "",
          "type": "uint256"
        }
      ],
      "stateMutability": "view",
      "type": "function",
      "constant": true
    },
    {
      "inputs": [
        {
          "internalType": "uint256",
          "name": "n",
          "type": "uint256"
        },
        {
          "internalType": "uint256",
          "name": "i",
          "type": "uint256"
        }
      ],
      "name": "return_PlayerData",
      "outputs": [
        {
          "internalType": "uint256",
          "name": "",
          "type": "uint256"
        },
        {
          "internalType": "string",
          "name": "",
          "type": "string"
        },
        {
          "internalType": "string",
          "name": "",
          "type": "string"
        },
        {
          "internalType": "string",
          "name": "",
          "type": "string"
        },
        {
          "internalType": "uint256",
          "name": "",
          "type": "uint256"
        }
      ],
      "stateMutability": "view",
      "type": "function",
      "constant": true
    },
    {
      "inputs": [
        {
          "internalType": "uint256",
          "name": "i",
          "type": "uint256"
        }
      ],
      "name": "return_subscribed_n",
      "outputs": [
        {
          "internalType": "uint256",
          "name": "",
          "type": "uint256"
        }
      ],
      "stateMutability": "view",
      "type": "function",
      "constant": true
    },
    {
      "inputs": [
        {
          "internalType": "uint256",
          "name": "n",
          "type": "uint256"
        },
        {
          "internalType": "uint256",
          "name": "i",
          "type": "uint256"
        }
      ],
      "name": "return_PlayerData_private",
      "outputs": [
        {
          "internalType": "address",
          "name": "",
          "type": "address"
        },
        {
          "internalType": "uint256",
          "name": "",
          "type": "uint256"
        }
      ],
      "stateMutability": "view",
      "type": "function",
      "constant": true
    },
    {
      "inputs": [
        {
          "internalType": "uint256",
          "name": "i",
          "type": "uint256"
        }
      ],
      "name": "_elected",
      "outputs": [
        {
          "internalType": "uint256",
          "name": "",
          "type": "uint256"
        }
      ],
      "stateMutability": "view",
      "type": "function",
      "constant": true
    },
    {
      "inputs": [
        {
          "internalType": "uint256",
          "name": "i",
          "type": "uint256"
        }
      ],
      "name": "return_prime",
      "outputs": [
        {
          "internalType": "uint256",
          "name": "",
          "type": "uint256"
        }
      ],
      "stateMutability": "view",
      "type": "function",
      "constant": true
    },
    {
      "inputs": [
        {
          "internalType": "uint256",
          "name": "i",
          "type": "uint256"
        }
      ],
      "name": "return_n_players",
      "outputs": [
        {
          "internalType": "uint256",
          "name": "",
          "type": "uint256"
        }
      ],
      "stateMutability": "view",
      "type": "function",
      "constant": true
    },
    {
      "inputs": [
        {
          "internalType": "uint256",
          "name": "i",
          "type": "uint256"
        }
      ],
      "name": "return_info",
      "outputs": [
        {
          "internalType": "string",
          "name": "",
          "type": "string"
        }
      ],
      "stateMutability": "view",
      "type": "function",
      "constant": true
    },
    {
      "inputs": [
        {
          "internalType": "uint256",
          "name": "i",
          "type": "uint256"
        }
      ],
      "name": "return_locs",
      "outputs": [
        {
          "internalType": "string",
          "name": "",
          "type": "string"
        },
        {
          "internalType": "string",
          "name": "",
          "type": "string"
        },
        {
          "internalType": "string",
          "name": "",
          "type": "string"
        }
      ],
      "stateMutability": "view",
      "type": "function",
      "constant": true
    },
    {
      "inputs": [
        {
          "internalType": "uint256",
          "name": "i",
          "type": "uint256"
        }
      ],
      "name": "return_CA",
      "outputs": [
        {
          "internalType": "string",
          "name": "",
          "type": "string"
        }
      ],
      "stateMutability": "view",
      "type": "function",
      "constant": true
    },
    {
      "inputs": [
        {
          "internalType": "uint256",
          "name": "i",
          "type": "uint256"
        }
      ],
      "name": "return_payment",
      "outputs": [
        {
          "internalType": "uint256",
          "name": "",
          "type": "uint256"
        },
        {
          "internalType": "uint256",
          "name": "",
          "type": "uint256"
        }
      ],
      "stateMutability": "view",
      "type": "function",
      "constant": true
    },
    {
      "inputs": [],
      "name": "return_reputation",
      "outputs": [
        {
          "internalType": "uint256",
          "name": "",
          "type": "uint256"
        }
      ],
      "stateMutability": "view",
      "type": "function",
      "constant": true
    },
    {
      "inputs": [
        {
          "internalType": "uint256",
          "name": "i",
          "type": "uint256"
        }
      ],
      "name": "return_required_reputation",
      "outputs": [
        {
          "internalType": "uint256",
          "name": "",
          "type": "uint256"
        }
      ],
      "stateMutability": "view",
      "type": "function",
      "constant": true
    },
    {
      "inputs": [
        {
          "internalType": "uint256",
          "name": "i",
          "type": "uint256"
        }
      ],
      "name": "return_MODL",
      "outputs": [
        {
          "internalType": "uint256",
          "name": "",
          "type": "uint256"
        }
      ],
      "stateMutability": "view",
      "type": "function",
      "constant": true
    },
    {
      "inputs": [],
      "name": "return_registered",
      "outputs": [
        {
          "internalType": "uint256",
          "name": "",
          "type": "uint256"
        }
      ],
      "stateMutability": "view",
      "type": "function",
      "constant": true
    },
    {
      "inputs": [],
      "name": "balance",
      "outputs": [
        {
          "internalType": "uint256",
          "name": "",
          "type": "uint256"
        }
      ],
      "stateMutability": "view",
      "type": "function",
      "constant": true
    },
    {
      "inputs": [
        {
          "internalType": "uint256",
          "name": "j",
          "type": "uint256"
        }
      ],
      "name": "account_repeated",
      "outputs": [
        {
          "internalType": "uint256",
          "name": "",
          "type": "uint256"
        }
      ],
      "stateMutability": "view",
      "type": "function",
      "constant": true
    },
    {
      "inputs": [
        {
          "internalType": "uint256",
          "name": "amount",
          "type": "uint256"
        }
      ],
      "name": "withdraw",
      "outputs": [],
      "stateMutability": "payable",
      "type": "function",
      "payable": true
    },
    {
      "inputs": [
        {
          "internalType": "uint256",
          "name": "i",
          "type": "uint256"
        }
      ],
      "name": "Im_ready",
      "outputs": [],
      "stateMutability": "nonpayable",
      "type": "function"
    },
    {
      "inputs": [
        {
          "internalType": "uint256",
          "name": "i",
          "type": "uint256"
        },
        {
          "internalType": "uint256",
          "name": "success",
          "type": "uint256"
        }
      ],
      "name": "finished",
      "outputs": [],
      "stateMutability": "nonpayable",
      "type": "function"
    },
    {
      "inputs": [],
      "name": "register",
      "outputs": [],
      "stateMutability": "nonpayable",
      "type": "function"
    },
    {
      "inputs": [
        {
          "internalType": "uint256",
          "name": "my_data_length",
          "type": "uint256"
        },
        {
          "internalType": "string",
          "name": "myIP",
          "type": "string"
        },
        {
          "internalType": "string",
          "name": "myCRT",
          "type": "string"
        },
        {
          "internalType": "string",
          "name": "myCN",
          "type": "string"
        },
        {
          "internalType": "uint256",
          "name": "i",
          "type": "uint256"
        },
        {
          "internalType": "uint256",
          "name": "_reputation",
          "type": "uint256"
        }
      ],
      "name": "signup",
      "outputs": [],
      "stateMutability": "nonpayable",
      "type": "function"
    },
    {
      "inputs": [
        {
          "internalType": "uint256",
          "name": "i",
          "type": "uint256"
        },
        {
          "internalType": "string[4]",
          "name": "str_items",
          "type": "string[4]"
        },
        {
          "internalType": "uint256",
          "name": "my_data_length",
          "type": "uint256"
        },
        {
          "internalType": "uint256",
          "name": "_MODL",
          "type": "uint256"
        },
        {
          "internalType": "uint256",
          "name": "min_reputation",
          "type": "uint256"
        },
        {
          "internalType": "uint256",
          "name": "tokens",
          "type": "uint256"
        }
      ],
      "name": "update_request",
      "outputs": [],
      "stateMutability": "nonpayable",
      "type": "function"
    },
    {
      "inputs": [
        {
          "internalType": "string[6]",
          "name": "str_items",
          "type": "string[6]"
        },
        {
          "internalType": "uint256",
          "name": "my_data_length",
          "type": "uint256"
        },
        {
          "internalType": "uint256",
          "name": "_MODL",
          "type": "uint256"
        },
        {
          "internalType": "uint256",
          "name": "min_reputation",
          "type": "uint256"
        },
        {
          "internalType": "uint256",
          "name": "tokens",
          "type": "uint256"
        }
      ],
      "name": "new_request",
      "outputs": [],
      "stateMutability": "nonpayable",
      "type": "function"
    },
    {
      "inputs": [
        {
          "internalType": "uint256",
          "name": "prime",
          "type": "uint256"
        },
        {
          "internalType": "address[]",
          "name": "elected_players",
          "type": "address[]"
        },
        {
          "internalType": "string",
          "name": "BC_hash",
          "type": "string"
        },
        {
          "internalType": "string",
          "name": "SCH_hash",
          "type": "string"
        },
        {
          "internalType": "uint256",
          "name": "i",
          "type": "uint256"
        },
        {
          "internalType": "uint256",
          "name": "actual_payment",
          "type": "uint256"
        }
      ],
      "name": "throw_operation",
      "outputs": [],
      "stateMutability": "nonpayable",
      "type": "function"
    },
    {
      "inputs": [
        {
          "internalType": "uint256",
          "name": "i",
          "type": "uint256"
        }
      ],
      "name": "pay_to_players",
      "outputs": [],
      "stateMutability": "payable",
      "type": "function",
      "payable": true
    }
  ],
  "bytecode": "0x6080604052738d5a5965338aae0fbc02b16d1720c29f92cd7c94600160006101000a81548173ffffffffffffffffffffffffffffffffffffffff021916908373ffffffffffffffffffffffffffffffffffffffff16021790555034801561006557600080fd5b506000600581905550600160009054906101000a900473ffffffffffffffffffffffffffffffffffffffff166000806101000a81548173ffffffffffffffffffffffffffffffffffffffff021916908373ffffffffffffffffffffffffffffffffffffffff160217905550615d5e80620000e06000396000f3fe60806040526004361061019c5760003560e01c80635f537847116100ec578063b69ef8a81161008a578063e26ae03211610064578063e26ae03214610631578063e7393bb01461066e578063f19cd93714610697578063f63bb375146106d75761019c565b8063b69ef8a81461059e578063bdf1130e146105c9578063cd8babce146105f45761019c565b80639796b957116100c65780639796b957146104bb5780639aa3e3a4146104f8578063a5f64f5b14610523578063a99cdca4146105615761019c565b80635f53784714610418578063744234c1146104555780639616c3f91461047e5761019c565b80632e1a7d4d116101595780634d4698e2116101335780634d4698e21461034a578063505269e41461038757806350a0f15b146103b0578063526b78b5146103d95761019c565b80632e1a7d4d146102c657806334843da5146102e257806347799da81461031f5761019c565b806301c25572146101a15780630b6a1453146101ca5780631429ecd514610208578063164e400a146102315780631aa3a008146102725780631b75279b14610289575b600080fd5b3480156101ad57600080fd5b506101c860048036038101906101c39190614608565b6106f3565b005b3480156101d657600080fd5b506101f160048036038101906101ec91906148b9565b610954565b6040516101ff929190614d0c565b60405180910390f35b34801561021457600080fd5b5061022f600480360381019061022a91906147da565b610b36565b005b34801561023d57600080fd5b50610258600480360381019061025391906148b9565b61107b565b6040516102699594939291906150e1565b60405180910390f35b34801561027e57600080fd5b50610287611516565b005b34801561029557600080fd5b506102b060048036038101906102ab9190614608565b611624565b6040516102bd9190615096565b60405180910390f35b6102e060048036038101906102db9190614608565b61181c565b005b3480156102ee57600080fd5b5061030960048036038101906103049190614608565b6118cd565b6040516103169190615096565b60405180910390f35b34801561032b57600080fd5b506103346118f2565b6040516103419190615096565b60405180910390f35b34801561035657600080fd5b50610371600480360381019061036c9190614608565b6118f8565b60405161037e9190615096565b60405180910390f35b34801561039357600080fd5b506103ae60048036038101906103a991906148b9565b611a87565b005b3480156103bc57600080fd5b506103d760048036038101906103d2919061465a565b611ded565b005b3480156103e557600080fd5b5061040060048036038101906103fb9190614608565b61216a565b60405161040f93929190614daa565b60405180910390f35b34801561042457600080fd5b5061043f600480360381019061043a9190614608565b612495565b60405161044c9190615096565b60405180910390f35b34801561046157600080fd5b5061047c60048036038101906104779190614550565b6125bb565b005b34801561048a57600080fd5b506104a560048036038101906104a09190614608565b612c30565b6040516104b29190614d88565b60405180910390f35b3480156104c757600080fd5b506104e260048036038101906104dd9190614608565b612da6565b6040516104ef9190615096565b60405180910390f35b34801561050457600080fd5b5061050d612e66565b60405161051a9190615096565b60405180910390f35b34801561052f57600080fd5b5061054a60048036038101906105459190614608565b612ead565b604051610558929190615179565b60405180910390f35b34801561056d57600080fd5b5061058860048036038101906105839190614608565b612edb565b6040516105959190615096565b60405180910390f35b3480156105aa57600080fd5b506105b3612f00565b6040516105c09190615096565b60405180910390f35b3480156105d557600080fd5b506105de612fb1565b6040516105eb9190615096565b60405180910390f35b34801561060057600080fd5b5061061b60048036038101906106169190614608565b612ff8565b6040516106289190615096565b60405180910390f35b34801561063d57600080fd5b5061065860048036038101906106539190614608565b613165565b6040516106659190614d88565b60405180910390f35b34801561067a57600080fd5b5061069560048036038101906106909190614739565b613363565b005b3480156106a357600080fd5b506106be60048036038101906106b99190614608565b613ab0565b6040516106ce9493929190614d35565b60405180910390f35b6106f160048036038101906106ec9190614608565b613e91565b005b600060026000838152602001908152602001600020905060036005811115610744577f4e487b7100000000000000000000000000000000000000000000000000000000600052602160045260246000fd5b8160140160009054906101000a900460ff16600581111561078e577f4e487b7100000000000000000000000000000000000000000000000000000000600052602160045260246000fd5b146107ce576040517f08c379a00000000000000000000000000000000000000000000000000000000081526004016107c590614ed6565b60405180910390fd5b600181600e0160003373ffffffffffffffffffffffffffffffffffffffff1673ffffffffffffffffffffffffffffffffffffffff1681526020019081526020016000205414610852576040517f08c379a000000000000000000000000000000000000000000000000000000000815260040161084990614e96565b60405180910390fd5b600281600e0160003373ffffffffffffffffffffffffffffffffffffffff1673ffffffffffffffffffffffffffffffffffffffff1681526020019081526020016000208190555060018160090160008282546108ae9190615275565b92505081905550806000015481600901541415610950577febc008450d3e2fdd5fe2cc70162808df5a4d75d1371a6e5ed324749f5c0607ad826040516108f49190615096565b60405180910390a160048160140160006101000a81548160ff0219169083600581111561094a577f4e487b7100000000000000000000000000000000000000000000000000000000600052602160045260246000fd5b02179055505b5050565b600080600060026000858152602001908152602001600020905080600f01600080815260200190815260200160002060000160009054906101000a900473ffffffffffffffffffffffffffffffffffffffff1673ffffffffffffffffffffffffffffffffffffffff163373ffffffffffffffffffffffffffffffffffffffff1614610a14576040517f08c379a0000000000000000000000000000000000000000000000000000000008152600401610a0b90614fd6565b60405180910390fd5b60026005811115610a4e577f4e487b7100000000000000000000000000000000000000000000000000000000600052602160045260246000fd5b8160140160009054906101000a900460ff166005811115610a98577f4e487b7100000000000000000000000000000000000000000000000000000000600052602160045260246000fd5b14610ad8576040517f08c379a0000000000000000000000000000000000000000000000000000000008152600401610acf90614fb6565b60405180910390fd5b80600f01600086815260200190815260200160002060000160009054906101000a900473ffffffffffffffffffffffffffffffffffffffff1681600f0160008781526020019081526020016000206004015492509250509250929050565b80600460003373ffffffffffffffffffffffffffffffffffffffff1673ffffffffffffffffffffffffffffffffffffffff168152602001908152602001600020541015610bb8576040517f08c379a0000000000000000000000000000000000000000000000000000000008152600401610baf90614f76565b60405180910390fd5b600060026000848152602001908152602001600020905060016005811115610c09577f4e487b7100000000000000000000000000000000000000000000000000000000600052602160045260246000fd5b8160140160009054906101000a900460ff166005811115610c53577f4e487b7100000000000000000000000000000000000000000000000000000000600052602160045260246000fd5b14610c93576040517f08c379a0000000000000000000000000000000000000000000000000000000008152600401610c8a90614ed6565b60405180910390fd5b6001610c9e84612da6565b14610cde576040517f08c379a0000000000000000000000000000000000000000000000000000000008152600401610cd590614df6565b60405180910390fd5b8060020154821015610d25576040517f08c379a0000000000000000000000000000000000000000000000000000000008152600401610d1c90615076565b60405180910390fd5b80600701548a10610d6b576040517f08c379a0000000000000000000000000000000000000000000000000000000008152600401610d6290615016565b60405180910390fd5b81600460003373ffffffffffffffffffffffffffffffffffffffff1673ffffffffffffffffffffffffffffffffffffffff1681526020019081526020016000206000828254610dba9190615325565b925050819055506040518060c001604052803373ffffffffffffffffffffffffffffffffffffffff1681526020018a8a8080601f016020809104026020016040519081016040528093929190818152602001838380828437600081840152601f19601f82011690508083019250505050505050815260200188888080601f016020809104026020016040519081016040528093929190818152602001838380828437600081840152601f19601f82011690508083019250505050505050815260200186868080601f016020809104026020016040519081016040528093929190818152602001838380828437600081840152601f19601f8201169050808301925050505050505081526020018b81526020018381525081600f0160008360040154815260200190815260200160002060008201518160000160006101000a81548173ffffffffffffffffffffffffffffffffffffffff021916908373ffffffffffffffffffffffffffffffffffffffff1602179055506020820151816001019080519060200190610f4c9291906141b8565b506040820151816002019080519060200190610f699291906141b8565b506060820151816003019080519060200190610f869291906141b8565b506080820151816004015560a082015181600501559050506001816004016000828254610fb39190615275565b9250508190555089816008016000828254610fce9190615275565b92505081905550806007015481600801541061106f5760028160140160006101000a81548160ff02191690836005811115611032577f4e487b7100000000000000000000000000000000000000000000000000000000600052602160045260246000fd5b02179055507f94da255d16d9dea0f9c791a067def55f079628ae0edcbe1f09bd8a71b8c3e674836040516110669190615096565b60405180910390a15b50505050505050505050565b60006060806060600080600260008881526020019081526020016000209050600360058111156110d4577f4e487b7100000000000000000000000000000000000000000000000000000000600052602160045260246000fd5b8160140160009054906101000a900460ff16600581111561111e577f4e487b7100000000000000000000000000000000000000000000000000000000600052602160045260246000fd5b1461115e576040517f08c379a000000000000000000000000000000000000000000000000000000000815260040161115590614fb6565b60405180910390fd5b600181600e0160003373ffffffffffffffffffffffffffffffffffffffff1673ffffffffffffffffffffffffffffffffffffffff16815260200190815260200160002054146111e2576040517f08c379a00000000000000000000000000000000000000000000000000000000081526004016111d990614e16565b60405180910390fd5b600081600e01600083600f0160008c815260200190815260200160002060000160009054906101000a900473ffffffffffffffffffffffffffffffffffffffff1673ffffffffffffffffffffffffffffffffffffffff1673ffffffffffffffffffffffffffffffffffffffff16815260200190815260200160002054141561129f576040517f08c379a000000000000000000000000000000000000000000000000000000000815260040161129690614ef6565b60405180910390fd5b600081600f0160008a815260200190815260200160002060000160009054906101000a900473ffffffffffffffffffffffffffffffffffffffff1673ffffffffffffffffffffffffffffffffffffffff163373ffffffffffffffffffffffffffffffffffffffff16141561131257600190505b8882600f0160008b815260200190815260200160002060010183600f0160008c815260200190815260200160002060020184600f0160008d81526020019081526020016000206003018483805461136890615408565b80601f016020809104026020016040519081016040528092919081815260200182805461139490615408565b80156113e15780601f106113b6576101008083540402835291602001916113e1565b820191906000526020600020905b8154815290600101906020018083116113c457829003601f168201915b505050505093508280546113f490615408565b80601f016020809104026020016040519081016040528092919081815260200182805461142090615408565b801561146d5780601f106114425761010080835404028352916020019161146d565b820191906000526020600020905b81548152906001019060200180831161145057829003601f168201915b5050505050925081805461148090615408565b80601f01602080910402602001604051908101604052809291908181526020018280546114ac90615408565b80156114f95780601f106114ce576101008083540402835291602001916114f9565b820191906000526020600020905b8154815290600101906020018083116114dc57829003601f168201915b505050505091509650965096509650965050509295509295909350565b6000600360003373ffffffffffffffffffffffffffffffffffffffff1673ffffffffffffffffffffffffffffffffffffffff1681526020019081526020016000205414611598576040517f08c379a000000000000000000000000000000000000000000000000000000000815260040161158f90614f16565b60405180910390fd5b6001600360003373ffffffffffffffffffffffffffffffffffffffff1673ffffffffffffffffffffffffffffffffffffffff168152602001908152602001600020819055506032600460003373ffffffffffffffffffffffffffffffffffffffff1673ffffffffffffffffffffffffffffffffffffffff16815260200190815260200160002081905550565b60008060026000848152602001908152602001600020905060036005811115611676577f4e487b7100000000000000000000000000000000000000000000000000000000600052602160045260246000fd5b8160140160009054906101000a900460ff1660058111156116c0577f4e487b7100000000000000000000000000000000000000000000000000000000600052602160045260246000fd5b148061174c5750600580811115611700577f4e487b7100000000000000000000000000000000000000000000000000000000600052602160045260246000fd5b8160140160009054906101000a900460ff16600581111561174a577f4e487b7100000000000000000000000000000000000000000000000000000000600052602160045260246000fd5b145b61178b576040517f08c379a000000000000000000000000000000000000000000000000000000000815260040161178290614fb6565b60405180910390fd5b600181600e0160003373ffffffffffffffffffffffffffffffffffffffff1673ffffffffffffffffffffffffffffffffffffffff168152602001908152602001600020541461180f576040517f08c379a000000000000000000000000000000000000000000000000000000000815260040161180690614e16565b60405180910390fd5b8060030154915050919050565b60008054906101000a900473ffffffffffffffffffffffffffffffffffffffff1673ffffffffffffffffffffffffffffffffffffffff1663a9059cbb33836040518363ffffffff1660e01b8152600401611877929190614d0c565b602060405180830381600087803b15801561189157600080fd5b505af11580156118a5573d6000803e3d6000fd5b505050506040513d601f19601f820116820180604052508101906118c991906145df565b5050565b6000806002600084815260200190815260200160002090508060070154915050919050565b60055481565b6000806002600084815260200190815260200160002090506002600581111561194a577f4e487b7100000000000000000000000000000000000000000000000000000000600052602160045260246000fd5b8160140160009054906101000a900460ff166005811115611994577f4e487b7100000000000000000000000000000000000000000000000000000000600052602160045260246000fd5b146119d4576040517f08c379a00000000000000000000000000000000000000000000000000000000081526004016119cb90614fb6565b60405180910390fd5b80600f01600080815260200190815260200160002060000160009054906101000a900473ffffffffffffffffffffffffffffffffffffffff1673ffffffffffffffffffffffffffffffffffffffff163373ffffffffffffffffffffffffffffffffffffffff1614611a7a576040517f08c379a0000000000000000000000000000000000000000000000000000000008152600401611a7190614e16565b60405180910390fd5b8060040154915050919050565b600060026000848152602001908152602001600020905060046005811115611ad8577f4e487b7100000000000000000000000000000000000000000000000000000000600052602160045260246000fd5b8160140160009054906101000a900460ff166005811115611b22577f4e487b7100000000000000000000000000000000000000000000000000000000600052602160045260246000fd5b14611b62576040517f08c379a0000000000000000000000000000000000000000000000000000000008152600401611b5990614ed6565b60405180910390fd5b600281600e0160003373ffffffffffffffffffffffffffffffffffffffff1673ffffffffffffffffffffffffffffffffffffffff1681526020019081526020016000205414611be6576040517f08c379a0000000000000000000000000000000000000000000000000000000008152600401611bdd90615056565b60405180910390fd5b80600f01600080815260200190815260200160002060000160009054906101000a900473ffffffffffffffffffffffffffffffffffffffff1673ffffffffffffffffffffffffffffffffffffffff163373ffffffffffffffffffffffffffffffffffffffff161415611c5c578181600c01819055505b600381600e0160003373ffffffffffffffffffffffffffffffffffffffff1673ffffffffffffffffffffffffffffffffffffffff16815260200190815260200160002081905550600181600a016000828254611cb89190615275565b925050819055506000821415611ce957600181600d016000828254611cdd9190615275565b92505081905550611d06565b600181600b016000828254611cfe9190615275565b925050819055505b806000015481600a01541415611de8577fdd82ed6dcbe4148e9044a9700d0dc5913c6870ee0994c4bb985c5243421d15ca83604051611d459190615096565b60405180910390a180600d015481600b01541115611d6b57611d6683613e91565b611d94565b80600d015481600b01541415611d9357600181600c01541415611d9257611d9183613e91565b5b5b5b60058160140160006101000a81548160ff02191690836005811115611de2577f4e487b7100000000000000000000000000000000000000000000000000000000600052602160045260246000fd5b02179055505b505050565b600060026000848152602001908152602001600020905060026005811115611e3e577f4e487b7100000000000000000000000000000000000000000000000000000000600052602160045260246000fd5b8160140160009054906101000a900460ff166005811115611e88577f4e487b7100000000000000000000000000000000000000000000000000000000600052602160045260246000fd5b14611ec8576040517f08c379a0000000000000000000000000000000000000000000000000000000008152600401611ebf90614eb6565b60405180910390fd5b80600f01600080815260200190815260200160002060000160009054906101000a900473ffffffffffffffffffffffffffffffffffffffff1673ffffffffffffffffffffffffffffffffffffffff163373ffffffffffffffffffffffffffffffffffffffff1614611f6e576040517f08c379a0000000000000000000000000000000000000000000000000000000008152600401611f6590614ff6565b60405180910390fd5b89816003018190555081816006018190555088889050816000018190555060005b816000015481101561204257600182600e0160008c8c85818110611fdc577f4e487b7100000000000000000000000000000000000000000000000000000000600052603260045260246000fd5b9050602002016020810190611ff19190614527565b73ffffffffffffffffffffffffffffffffffffffff1673ffffffffffffffffffffffffffffffffffffffff16815260200190815260200160002081905550808061203a9061546b565b915050611f8f565b50600181600e0160003373ffffffffffffffffffffffffffffffffffffffff1673ffffffffffffffffffffffffffffffffffffffff16815260200190815260200160002081905550600181600001600082825461209f9190615275565b9250508190555086868260100160000191906120bc92919061423e565b5084848260100160010191906120d392919061423e565b5060038160140160006101000a81548160ff02191690836005811115612122577f4e487b7100000000000000000000000000000000000000000000000000000000600052602160045260246000fd5b02179055507f6219a1a8c8b940526f219ed993504de80c6cbeb8319f3b0343a74c767f38784a836040516121569190615096565b60405180910390a150505050505050505050565b60608060606000600260008681526020019081526020016000209050600360058111156121c0577f4e487b7100000000000000000000000000000000000000000000000000000000600052602160045260246000fd5b8160140160009054906101000a900460ff16600581111561220a577f4e487b7100000000000000000000000000000000000000000000000000000000600052602160045260246000fd5b1461224a576040517f08c379a000000000000000000000000000000000000000000000000000000000815260040161224190614e76565b60405180910390fd5b600181600e0160003373ffffffffffffffffffffffffffffffffffffffff1673ffffffffffffffffffffffffffffffffffffffff16815260200190815260200160002054146122ce576040517f08c379a00000000000000000000000000000000000000000000000000000000081526004016122c590614e16565b60405180910390fd5b8060100160000181601001600101826010016002018280546122ef90615408565b80601f016020809104026020016040519081016040528092919081815260200182805461231b90615408565b80156123685780601f1061233d57610100808354040283529160200191612368565b820191906000526020600020905b81548152906001019060200180831161234b57829003601f168201915b5050505050925081805461237b90615408565b80601f01602080910402602001604051908101604052809291908181526020018280546123a790615408565b80156123f45780601f106123c9576101008083540402835291602001916123f4565b820191906000526020600020905b8154815290600101906020018083116123d757829003601f168201915b5050505050915080805461240790615408565b80601f016020809104026020016040519081016040528092919081815260200182805461243390615408565b80156124805780601f1061245557610100808354040283529160200191612480565b820191906000526020600020905b81548152906001019060200180831161246357829003601f168201915b50505050509050935093509350509193909250565b600080600260008481526020019081526020016000209050600360058111156124e7577f4e487b7100000000000000000000000000000000000000000000000000000000600052602160045260246000fd5b8160140160009054906101000a900460ff166005811115612531577f4e487b7100000000000000000000000000000000000000000000000000000000600052602160045260246000fd5b14612571576040517f08c379a000000000000000000000000000000000000000000000000000000000815260040161256890614fb6565b60405180910390fd5b80600e0160003373ffffffffffffffffffffffffffffffffffffffff1673ffffffffffffffffffffffffffffffffffffffff16815260200190815260200160002054915050919050565b81600460003373ffffffffffffffffffffffffffffffffffffffff1673ffffffffffffffffffffffffffffffffffffffff16815260200190815260200160002054101561263d576040517f08c379a000000000000000000000000000000000000000000000000000000000815260040161263490615036565b60405180910390fd5b8060008054906101000a900473ffffffffffffffffffffffffffffffffffffffff1673ffffffffffffffffffffffffffffffffffffffff166370a08231336040518263ffffffff1660e01b81526004016126979190614cba565b60206040518083038186803b1580156126af57600080fd5b505afa1580156126c3573d6000803e3d6000fd5b505050506040513d601f19601f820116820180604052508101906126e79190614631565b1015612728576040517f08c379a000000000000000000000000000000000000000000000000000000000815260040161271f90614e36565b60405180910390fd5b60016005546127379190615275565b6005819055506000600260006005548152602001908152602001600020905085600060068110612790577f4e487b7100000000000000000000000000000000000000000000000000000000600052603260045260246000fd5b60200201518160010190805190602001906127ac9291906141b8565b5082816002018190555082600460003373ffffffffffffffffffffffffffffffffffffffff1673ffffffffffffffffffffffffffffffffffffffff16815260200190815260200160002060008282546128059190615325565b9250508190555060018160140160006101000a81548160ff0219169083600581111561285a577f4e487b7100000000000000000000000000000000000000000000000000000000600052602160045260246000fd5b0217905550600181600401819055508381600701819055508181600501819055508481600801819055506040518060c001604052803373ffffffffffffffffffffffffffffffffffffffff168152602001876001600681106128e5577f4e487b7100000000000000000000000000000000000000000000000000000000600052603260045260246000fd5b6020020151815260200187600260068110612929577f4e487b7100000000000000000000000000000000000000000000000000000000600052603260045260246000fd5b602002015181526020018760036006811061296d577f4e487b7100000000000000000000000000000000000000000000000000000000600052603260045260246000fd5b602002015181526020018681526020018481525081600f01600080815260200190815260200160002060008201518160000160006101000a81548173ffffffffffffffffffffffffffffffffffffffff021916908373ffffffffffffffffffffffffffffffffffffffff16021790555060208201518160010190805190602001906129f99291906141b8565b506040820151816002019080519060200190612a169291906141b8565b506060820151816003019080519060200190612a339291906141b8565b506080820151816004015560a0820151816005015590505085600460068110612a85577f4e487b7100000000000000000000000000000000000000000000000000000000600052603260045260246000fd5b6020020151816010016002019080519060200190612aa49291906141b8565b5085600560068110612adf577f4e487b7100000000000000000000000000000000000000000000000000000000600052603260045260246000fd5b6020020151816010016003019080519060200190612afe9291906141b8565b5060008054906101000a900473ffffffffffffffffffffffffffffffffffffffff1673ffffffffffffffffffffffffffffffffffffffff166323b872dd3330856040518463ffffffff1660e01b8152600401612b5c93929190614cd5565b602060405180830381600087803b158015612b7657600080fd5b505af1158015612b8a573d6000803e3d6000fd5b505050506040513d601f19601f82011682018060405250810190612bae91906145df565b507f15a934d1e63881799b8e0e947e882027c9767a13e2387c921f22089e097923c860055487600560068110612c0d577f4e487b7100000000000000000000000000000000000000000000000000000000600052603260045260246000fd5b6020020151604051612c209291906150b1565b60405180910390a1505050505050565b6060600060026000848152602001908152602001600020905060006005811115612c83577f4e487b7100000000000000000000000000000000000000000000000000000000600052602160045260246000fd5b8160140160009054906101000a900460ff166005811115612ccd577f4e487b7100000000000000000000000000000000000000000000000000000000600052602160045260246000fd5b1415612d0e576040517f08c379a0000000000000000000000000000000000000000000000000000000008152600401612d0590614f36565b60405180910390fd5b806010016003018054612d2090615408565b80601f0160208091040260200160405190810160405280929190818152602001828054612d4c90615408565b8015612d995780601f10612d6e57610100808354040283529160200191612d99565b820191906000526020600020905b815481529060010190602001808311612d7c57829003601f168201915b5050505050915050919050565b60008060026000848152602001908152602001600020905060006001905060005b8260040154811015612e5b573373ffffffffffffffffffffffffffffffffffffffff1683600f01600083815260200190815260200160002060000160009054906101000a900473ffffffffffffffffffffffffffffffffffffffff1673ffffffffffffffffffffffffffffffffffffffff161415612e485760009150612e5b565b8080612e539061546b565b915050612dc7565b508092505050919050565b6000600460003373ffffffffffffffffffffffffffffffffffffffff1673ffffffffffffffffffffffffffffffffffffffff16815260200190815260200160002054905090565b6000806000600260008581526020019081526020016000209050806005015481600701549250925050915091565b6000806002600084815260200190815260200160002090508060020154915050919050565b60008060009054906101000a900473ffffffffffffffffffffffffffffffffffffffff1673ffffffffffffffffffffffffffffffffffffffff166370a08231336040518263ffffffff1660e01b8152600401612f5c9190614cba565b60206040518083038186803b158015612f7457600080fd5b505afa158015612f88573d6000803e3d6000fd5b505050506040513d601f19601f82011682018060405250810190612fac9190614631565b905090565b6000600360003373ffffffffffffffffffffffffffffffffffffffff1673ffffffffffffffffffffffffffffffffffffffff16815260200190815260200160002054905090565b6000806002600084815260200190815260200160002090506003600581111561304a577f4e487b7100000000000000000000000000000000000000000000000000000000600052602160045260246000fd5b8160140160009054906101000a900460ff166005811115613094577f4e487b7100000000000000000000000000000000000000000000000000000000600052602160045260246000fd5b146130d4576040517f08c379a00000000000000000000000000000000000000000000000000000000081526004016130cb90614f96565b60405180910390fd5b600181600e0160003373ffffffffffffffffffffffffffffffffffffffff1673ffffffffffffffffffffffffffffffffffffffff1681526020019081526020016000205414613158576040517f08c379a000000000000000000000000000000000000000000000000000000000815260040161314f90614e16565b60405180910390fd5b8060000154915050919050565b60606000600260008481526020019081526020016000209050600160058111156131b8577f4e487b7100000000000000000000000000000000000000000000000000000000600052602160045260246000fd5b8160140160009054906101000a900460ff166005811115613202577f4e487b7100000000000000000000000000000000000000000000000000000000600052602160045260246000fd5b148061328f575060036005811115613243577f4e487b7100000000000000000000000000000000000000000000000000000000600052602160045260246000fd5b8160140160009054906101000a900460ff16600581111561328d577f4e487b7100000000000000000000000000000000000000000000000000000000600052602160045260246000fd5b145b6132ce576040517f08c379a00000000000000000000000000000000000000000000000000000000081526004016132c590614f96565b60405180910390fd5b8060010180546132dd90615408565b80601f016020809104026020016040519081016040528092919081815260200182805461330990615408565b80156133565780601f1061332b57610100808354040283529160200191613356565b820191906000526020600020905b81548152906001019060200180831161333957829003601f168201915b5050505050915050919050565b81600460003373ffffffffffffffffffffffffffffffffffffffff1673ffffffffffffffffffffffffffffffffffffffff1681526020019081526020016000205410156133e5576040517f08c379a00000000000000000000000000000000000000000000000000000000081526004016133dc90615036565b60405180910390fd5b8060008054906101000a900473ffffffffffffffffffffffffffffffffffffffff1673ffffffffffffffffffffffffffffffffffffffff166370a08231336040518263ffffffff1660e01b815260040161343f9190614cba565b60206040518083038186803b15801561345757600080fd5b505afa15801561346b573d6000803e3d6000fd5b505050506040513d601f19601f8201168201806040525081019061348f9190614631565b10156134d0576040517f08c379a00000000000000000000000000000000000000000000000000000000081526004016134c790614e36565b60405180910390fd5b600554861115613515576040517f08c379a000000000000000000000000000000000000000000000000000000000815260040161350c90614f56565b60405180910390fd5b6000600260008881526020019081526020016000209050600580811115613565577f4e487b7100000000000000000000000000000000000000000000000000000000600052602160045260246000fd5b8160140160009054906101000a900460ff1660058111156135af577f4e487b7100000000000000000000000000000000000000000000000000000000600052602160045260246000fd5b146135ef576040517f08c379a00000000000000000000000000000000000000000000000000000000081526004016135e690614e56565b60405180910390fd5b60005b816004015481101561369057600082600e01600084600f01600085815260200190815260200160002060000160009054906101000a900473ffffffffffffffffffffffffffffffffffffffff1673ffffffffffffffffffffffffffffffffffffffff1673ffffffffffffffffffffffffffffffffffffffff1681526020019081526020016000208190555080806136889061546b565b9150506135f2565b50856000600481106136cb577f4e487b7100000000000000000000000000000000000000000000000000000000600052603260045260246000fd5b60200201518160010190805190602001906136e79291906141b8565b5082816002018190555082600460003373ffffffffffffffffffffffffffffffffffffffff1673ffffffffffffffffffffffffffffffffffffffff16815260200190815260200160002060008282546137409190615325565b9250508190555060018160140160006101000a81548160ff02191690836005811115613795577f4e487b7100000000000000000000000000000000000000000000000000000000600052602160045260246000fd5b021790555060008160090181905550600081600a0181905550600081600d0181905550600081600b0181905550600081600c0181905550600181600401819055508381600701819055508181600501819055508481600801819055506040518060c001604052803373ffffffffffffffffffffffffffffffffffffffff16815260200187600160048110613852577f4e487b7100000000000000000000000000000000000000000000000000000000600052603260045260246000fd5b6020020151815260200187600260048110613896577f4e487b7100000000000000000000000000000000000000000000000000000000600052603260045260246000fd5b60200201518152602001876003600481106138da577f4e487b7100000000000000000000000000000000000000000000000000000000600052603260045260246000fd5b602002015181526020018681526020018481525081600f01600080815260200190815260200160002060008201518160000160006101000a81548173ffffffffffffffffffffffffffffffffffffffff021916908373ffffffffffffffffffffffffffffffffffffffff16021790555060208201518160010190805190602001906139669291906141b8565b5060408201518160020190805190602001906139839291906141b8565b5060608201518160030190805190602001906139a09291906141b8565b506080820151816004015560a0820151816005015590505060008054906101000a900473ffffffffffffffffffffffffffffffffffffffff1673ffffffffffffffffffffffffffffffffffffffff166323b872dd3330856040518463ffffffff1660e01b8152600401613a1593929190614cd5565b602060405180830381600087803b158015613a2f57600080fd5b505af1158015613a43573d6000803e3d6000fd5b505050506040513d601f19601f82011682018060405250810190613a6791906145df565b507fe0647fea784e1a124f7681625670c139bc7e4e8bfaf8e3acf52aa2dba949db208782601001600301604051613a9f929190615149565b60405180910390a150505050505050565b6000606080600080600260008781526020019081526020016000209050606080600060016005811115613b0c577f4e487b7100000000000000000000000000000000000000000000000000000000600052602160045260246000fd5b8460140160009054906101000a900460ff166005811115613b56577f4e487b7100000000000000000000000000000000000000000000000000000000600052602160045260246000fd5b1415613bd8576040518060400160405280601a81526020017f576520617265206174207375627363726962696e672074696d6500000000000081525092506040518060400160405280601381526020017f5375627363726962656420706c61796572733a00000000000000000000000000815250915083600401549050613e69565b60026005811115613c12577f4e487b7100000000000000000000000000000000000000000000000000000000600052602160045260246000fd5b8460140160009054906101000a900460ff166005811115613c5c577f4e487b7100000000000000000000000000000000000000000000000000000000600052602160045260246000fd5b1415613cc1576040518060600160405280603c8152602001615cb2603c913992506040518060400160405280601381526020017f5375627363726962656420706c61796572733a00000000000000000000000000815250915083600401549050613e68565b60036005811115613cfb577f4e487b7100000000000000000000000000000000000000000000000000000000600052602160045260246000fd5b8460140160009054906101000a900460ff166005811115613d45577f4e487b7100000000000000000000000000000000000000000000000000000000600052602160045260246000fd5b1415613daa57604051806060016040528060368152602001615c7c6036913992506040518060400160405280601c81526020017f526561647920706c61796572732061742074686973206d6f6d656e7400000000815250915083600901549050613e67565b60046005811115613de4577f4e487b7100000000000000000000000000000000000000000000000000000000600052602160045260246000fd5b8460140160009054906101000a900460ff166005811115613e2e577f4e487b7100000000000000000000000000000000000000000000000000000000600052602160045260246000fd5b1415613e66576040518060600160405280603b8152602001615cee603b91399250604051806020016040528060008152509150600090505b5b5b5b8360140160009054906101000a900460ff168383839750975097509750505050509193509193565b6000600260008381526020019081526020016000209050600081600201546002613ebb91906152cb565b6004600084600f01600080815260200190815260200160002060000160009054906101000a900473ffffffffffffffffffffffffffffffffffffffff1673ffffffffffffffffffffffffffffffffffffffff1673ffffffffffffffffffffffffffffffffffffffff1681526020019081526020016000206000828254613f419190615275565b92505081905550600190505b81600001548110156141b357600082600e01600084600f01600085815260200190815260200160002060000160009054906101000a900473ffffffffffffffffffffffffffffffffffffffff1673ffffffffffffffffffffffffffffffffffffffff1673ffffffffffffffffffffffffffffffffffffffff16815260200190815260200160002054146141a05781600f016000828152602001908152602001600020600501546002613fff91906152cb565b6004600084600f01600085815260200190815260200160002060000160009054906101000a900473ffffffffffffffffffffffffffffffffffffffff1673ffffffffffffffffffffffffffffffffffffffff1673ffffffffffffffffffffffffffffffffffffffff16815260200190815260200160002060008282546140859190615275565b92505081905550600082600f0160008381526020019081526020016000206004015483600601546140b691906152cb565b905060008054906101000a900473ffffffffffffffffffffffffffffffffffffffff1673ffffffffffffffffffffffffffffffffffffffff1663a9059cbb84600f01600085815260200190815260200160002060000160009054906101000a900473ffffffffffffffffffffffffffffffffffffffff16836040518363ffffffff1660e01b815260040161414b929190614d0c565b602060405180830381600087803b15801561416557600080fd5b505af1158015614179573d6000803e3d6000fd5b505050506040513d601f19601f8201168201806040525081019061419d91906145df565b50505b80806141ab9061546b565b915050613f4d565b505050565b8280546141c490615408565b90600052602060002090601f0160209004810192826141e6576000855561422d565b82601f106141ff57805160ff191683800117855561422d565b8280016001018555821561422d579182015b8281111561422c578251825591602001919060010190614211565b5b50905061423a91906142c4565b5090565b82805461424a90615408565b90600052602060002090601f01602090048101928261426c57600085556142b3565b82601f1061428557803560ff19168380011785556142b3565b828001600101855582156142b3579182015b828111156142b2578235825591602001919060010190614297565b5b5090506142c091906142c4565b5090565b5b808211156142dd5760008160009055506001016142c5565b5090565b60006142f46142ef846151c7565b6151a2565b9050808260005b8581101561432b578135850161431188826144d3565b8452602084019350602083019250506001810190506142fb565b5050509392505050565b6000614348614343846151ed565b6151a2565b9050808260005b8581101561437f578135850161436588826144d3565b84526020840193506020830192505060018101905061434f565b5050509392505050565b600061439c61439784615213565b6151a2565b9050828152602081018484840111156143b457600080fd5b6143bf8482856153c6565b509392505050565b6000813590506143d681615c36565b92915050565b60008083601f8401126143ee57600080fd5b8235905067ffffffffffffffff81111561440757600080fd5b60208301915083602082028301111561441f57600080fd5b9250929050565b600082601f83011261443757600080fd5b60046144448482856142e1565b91505092915050565b600082601f83011261445e57600080fd5b600661446b848285614335565b91505092915050565b60008151905061448381615c4d565b92915050565b60008083601f84011261449b57600080fd5b8235905067ffffffffffffffff8111156144b457600080fd5b6020830191508360018202830111156144cc57600080fd5b9250929050565b600082601f8301126144e457600080fd5b81356144f4848260208601614389565b91505092915050565b60008135905061450c81615c64565b92915050565b60008151905061452181615c64565b92915050565b60006020828403121561453957600080fd5b6000614547848285016143c7565b91505092915050565b600080600080600060a0868803121561456857600080fd5b600086013567ffffffffffffffff81111561458257600080fd5b61458e8882890161444d565b955050602061459f888289016144fd565b94505060406145b0888289016144fd565b93505060606145c1888289016144fd565b92505060806145d2888289016144fd565b9150509295509295909350565b6000602082840312156145f157600080fd5b60006145ff84828501614474565b91505092915050565b60006020828403121561461a57600080fd5b6000614628848285016144fd565b91505092915050565b60006020828403121561464357600080fd5b600061465184828501614512565b91505092915050565b600080600080600080600080600060c08a8c03121561467857600080fd5b60006146868c828d016144fd565b99505060208a013567ffffffffffffffff8111156146a357600080fd5b6146af8c828d016143dc565b985098505060408a013567ffffffffffffffff8111156146ce57600080fd5b6146da8c828d01614489565b965096505060608a013567ffffffffffffffff8111156146f957600080fd5b6147058c828d01614489565b945094505060806147188c828d016144fd565b92505060a06147298c828d016144fd565b9150509295985092959850929598565b60008060008060008060c0878903121561475257600080fd5b600061476089828a016144fd565b965050602087013567ffffffffffffffff81111561477d57600080fd5b61478989828a01614426565b955050604061479a89828a016144fd565b94505060606147ab89828a016144fd565b93505060806147bc89828a016144fd565b92505060a06147cd89828a016144fd565b9150509295509295509295565b600080600080600080600080600060c08a8c0312156147f857600080fd5b60006148068c828d016144fd565b99505060208a013567ffffffffffffffff81111561482357600080fd5b61482f8c828d01614489565b985098505060408a013567ffffffffffffffff81111561484e57600080fd5b61485a8c828d01614489565b965096505060608a013567ffffffffffffffff81111561487957600080fd5b6148858c828d01614489565b945094505060806148988c828d016144fd565b92505060a06148a98c828d016144fd565b9150509295985092959850929598565b600080604083850312156148cc57600080fd5b60006148da858286016144fd565b92505060206148eb858286016144fd565b9150509250929050565b6148fe81615359565b82525050565b61490d816153b4565b82525050565b600061491e82615259565b6149288185615264565b93506149388185602086016153d5565b61494181615570565b840191505092915050565b6000815461495981615408565b6149638186615264565b9450600182166000811461497e5760018114614990576149c3565b60ff19831686526020860193506149c3565b61499985615244565b60005b838110156149bb5781548189015260018201915060208101905061499c565b808801955050505b50505092915050565b60006149d9602e83615264565b91506149e482615581565b604082019050919050565b60006149fc602f83615264565b9150614a07826155d0565b604082019050919050565b6000614a1f603083615264565b9150614a2a8261561f565b604082019050919050565b6000614a42603883615264565b9150614a4d8261566e565b604082019050919050565b6000614a65602783615264565b9150614a70826156bd565b604082019050919050565b6000614a88602983615264565b9150614a938261570c565b604082019050919050565b6000614aab602d83615264565b9150614ab68261575b565b604082019050919050565b6000614ace603d83615264565b9150614ad9826157aa565b604082019050919050565b6000614af1603e83615264565b9150614afc826157f9565b604082019050919050565b6000614b14602a83615264565b9150614b1f82615848565b604082019050919050565b6000614b37606783615264565b9150614b4282615897565b608082019050919050565b6000614b5a603783615264565b9150614b6582615932565b604082019050919050565b6000614b7d603283615264565b9150614b8882615981565b604082019050919050565b6000614ba0603283615264565b9150614bab826159d0565b604082019050919050565b6000614bc3603083615264565b9150614bce82615a1f565b604082019050919050565b6000614be6601e83615264565b9150614bf182615a6e565b602082019050919050565b6000614c09603483615264565b9150614c1482615a97565b604082019050919050565b6000614c2c602c83615264565b9150614c3782615ae6565b604082019050919050565b6000614c4f603383615264565b9150614c5a82615b35565b604082019050919050565b6000614c72602c83615264565b9150614c7d82615b84565b604082019050919050565b6000614c95603a83615264565b9150614ca082615bd3565b604082019050919050565b614cb4816153aa565b82525050565b6000602082019050614ccf60008301846148f5565b92915050565b6000606082019050614cea60008301866148f5565b614cf760208301856148f5565b614d046040830184614cab565b949350505050565b6000604082019050614d2160008301856148f5565b614d2e6020830184614cab565b9392505050565b6000608082019050614d4a6000830187614904565b8181036020830152614d5c8186614913565b90508181036040830152614d708185614913565b9050614d7f6060830184614cab565b95945050505050565b60006020820190508181036000830152614da28184614913565b905092915050565b60006060820190508181036000830152614dc48186614913565b90508181036020830152614dd88185614913565b90508181036040830152614dec8184614913565b9050949350505050565b60006020820190508181036000830152614e0f816149cc565b9050919050565b60006020820190508181036000830152614e2f816149ef565b9050919050565b60006020820190508181036000830152614e4f81614a12565b9050919050565b60006020820190508181036000830152614e6f81614a35565b9050919050565b60006020820190508181036000830152614e8f81614a58565b9050919050565b60006020820190508181036000830152614eaf81614a7b565b9050919050565b60006020820190508181036000830152614ecf81614a9e565b9050919050565b60006020820190508181036000830152614eef81614ac1565b9050919050565b60006020820190508181036000830152614f0f81614ae4565b9050919050565b60006020820190508181036000830152614f2f81614b07565b9050919050565b60006020820190508181036000830152614f4f81614b2a565b9050919050565b60006020820190508181036000830152614f6f81614b4d565b9050919050565b60006020820190508181036000830152614f8f81614b70565b9050919050565b60006020820190508181036000830152614faf81614b93565b9050919050565b60006020820190508181036000830152614fcf81614bb6565b9050919050565b60006020820190508181036000830152614fef81614bd9565b9050919050565b6000602082019050818103600083015261500f81614bfc565b9050919050565b6000602082019050818103600083015261502f81614c1f565b9050919050565b6000602082019050818103600083015261504f81614c42565b9050919050565b6000602082019050818103600083015261506f81614c65565b9050919050565b6000602082019050818103600083015261508f81614c88565b9050919050565b60006020820190506150ab6000830184614cab565b92915050565b60006040820190506150c66000830185614cab565b81810360208301526150d88184614913565b90509392505050565b600060a0820190506150f66000830188614cab565b81810360208301526151088187614913565b9050818103604083015261511c8186614913565b905081810360608301526151308185614913565b905061513f6080830184614cab565b9695505050505050565b600060408201905061515e6000830185614cab565b8181036020830152615170818461494c565b90509392505050565b600060408201905061518e6000830185614cab565b61519b6020830184614cab565b9392505050565b60006151ac6151bd565b90506151b8828261543a565b919050565b6000604051905090565b600067ffffffffffffffff8211156151e2576151e1615541565b5b602082029050919050565b600067ffffffffffffffff82111561520857615207615541565b5b602082029050919050565b600067ffffffffffffffff82111561522e5761522d615541565b5b61523782615570565b9050602081019050919050565b60008190508160005260206000209050919050565b600081519050919050565b600082825260208201905092915050565b6000615280826153aa565b915061528b836153aa565b9250827fffffffffffffffffffffffffffffffffffffffffffffffffffffffffffffffff038211156152c0576152bf6154b4565b5b828201905092915050565b60006152d6826153aa565b91506152e1836153aa565b9250817fffffffffffffffffffffffffffffffffffffffffffffffffffffffffffffffff048311821515161561531a576153196154b4565b5b828202905092915050565b6000615330826153aa565b915061533b836153aa565b92508282101561534e5761534d6154b4565b5b828203905092915050565b60006153648261538a565b9050919050565b60008115159050919050565b600081905061538582615c22565b919050565b600073ffffffffffffffffffffffffffffffffffffffff82169050919050565b6000819050919050565b60006153bf82615377565b9050919050565b82818337600083830152505050565b60005b838110156153f35780820151818401526020810190506153d8565b83811115615402576000848401525b50505050565b6000600282049050600182168061542057607f821691505b6020821081141561543457615433615512565b5b50919050565b61544382615570565b810181811067ffffffffffffffff8211171561546257615461615541565b5b80604052505050565b6000615476826153aa565b91507fffffffffffffffffffffffffffffffffffffffffffffffffffffffffffffffff8214156154a9576154a86154b4565b5b600182019050919050565b7f4e487b7100000000000000000000000000000000000000000000000000000000600052601160045260246000fd5b7f4e487b7100000000000000000000000000000000000000000000000000000000600052602160045260246000fd5b7f4e487b7100000000000000000000000000000000000000000000000000000000600052602260045260246000fd5b7f4e487b7100000000000000000000000000000000000000000000000000000000600052604160045260246000fd5b6000601f19601f8301169050919050565b7f596f7520616c72656164792068617665207369676e656420757020666f72207460008201527f686973206f7065726174696f6e2e000000000000000000000000000000000000602082015250565b7f596f7520617265206e6f7420616c6c6f77656420746f206f627461696e20746860008201527f697320696e666f726d6174696f6e2e0000000000000000000000000000000000602082015250565b7f596f752070726f6d69736564206d6f726520746f6b656e73207468616e20746860008201527f65206f6e657320796f7520686176652e00000000000000000000000000000000602082015250565b7f546869732070726f6772616d20686173206e6f742066696e697368656420796560008201527f742e20596f752063616e6e6f74207570646174652069742e0000000000000000602082015250565b7f596f752063616e6e6f74206f627461696e207468697320696e666f726d61746960008201527f6f6e207965742e00000000000000000000000000000000000000000000000000602082015250565b7f596f7520617265206e6f7420616c6c6f77656420746f2074656c6c20796f752760008201527f72652072656164792e0000000000000000000000000000000000000000000000602082015250565b7f596f752063616e6e6f742063616c6c20746869732066756e6374696f6e20617460008201527f2074686973206d6f6d656e742e00000000000000000000000000000000000000602082015250565b7f54686520636f6e74726163742063616e6e6f742070726f636365737320796f7560008201527f7220636c61696d20696e206974732063757272656e742073746174652e000000602082015250565b7f5468697320706c61796572206973206e6f7420656c65637465642c20796f752060008201527f63616e6e6f74206f627461696e2074686520696e666f726d6174696f6e2e0000602082015250565b7f596f7520616c7265616479207265676973746572656420696e20746865206d6160008201527f726b6574706c6163652e00000000000000000000000000000000000000000000602082015250565b7f5468652066696c6520796f752061726520736561726368696e6720666f72206960008201527f73206e6f742075706c6f61646564207965742e20496620796f752077616e742c60208201527f20796f752063616e207468726f7720616e206f7065726174696f6e20746f206360408201527f6f6d707574652e00000000000000000000000000000000000000000000000000606082015250565b7f5468657265206973206e6f2070726576696f7573206f7065726174696f6e207460008201527f6f20757064617465206174207468697320696e6465782e000000000000000000602082015250565b7f596f752067616d626c6564206d6f72652072657075746174696f6e207468616e60008201527f20746865206f6e6520796f7520686176652e0000000000000000000000000000602082015250565b7f596f752063616e6e6f74206f627461696e207468697320696e666f726d61746960008201527f6f6e2061742074686973206d6f6d656e742e0000000000000000000000000000602082015250565b7f596f752063616e6e6f74206578656375746520746869732066756e6374696f6e60008201527f2061742074686973206d6f6d656e742e00000000000000000000000000000000602082015250565b7f596f752063616e6e6f742063616c6c20746869732066756e6374696f6e2e0000600082015250565b7f596f7520617265206e6f742077686f206d61646520746865207265717565737460008201527f20666f722074686973206f7065726174696f6e2e000000000000000000000000602082015250565b7f596f75722064617461206c656e677468206d757374206265206c65737320746860008201527f616e20746865204d4f444c2e0000000000000000000000000000000000000000602082015250565b7f596f75207265717569726564206d6f72652072657075746174696f6e2074686160008201527f6e20746865206f6e6520796f7520686176652e00000000000000000000000000602082015250565b7f596f7520617265206e6f7420616c6c6f77656420746f2074656c6c20796f752760008201527f76652066696e69736865642e0000000000000000000000000000000000000000602082015250565b7f596f75722072657075746174696f6e206973206e6f7420656e6f75676820746f60008201527f20706172746963697061746520696e207468697320534d50432e000000000000602082015250565b60068110615c3357615c326154e3565b5b50565b615c3f81615359565b8114615c4a57600080fd5b50565b615c568161536b565b8114615c6157600080fd5b50565b615c6d816153aa565b8114615c7857600080fd5b5056fe5765206172652077616974696e6720666f7220616c6c20706c617965727320746f2074656c6c2074686579206172652072656164792e5765206172652077616974696e6720666f7220746865206461746120736369656e7469737420746f207468726f7720746865206f7065726174696f6e546865206e6574776f726b20697320726561647920746f20737461727420746865205343414c452d4d414d424120636f6d7075746174696f6e732ea2646970667358221220456d830ceb3bd3f183f258d9dac94130c5a3c45d09702f8717ae47d4c53b9c8064736f6c63430008010033",
  "immutableReferences": {},
  "source": "// SPDX-License-Identifier: UNLICENSED\n\npragma solidity ^0.8.0;\n\n\nimport \"./token/Token.sol\";\n\ncontract subscribe {\n\n    /* -------------------------------------- OTHER CONTRACT IMPORTATION -------------------------------------- */\n\n\n    /* We first of all initialize the SocialToken contract's address in this contract\n    since we will need to do payments in the Universe network.*/\n    Token private token;\n    address private tokenaddress = 0x8D5a5965338AaE0FbC02B16D1720c29f92CD7c94;\n                                                                                                                                         \n                                                        \n    // ------------------------------------------------------------CONSTRUCTOR------------------------------------------------------------\n\n\n    // In constructor we initialize the contract state and the current operation to the default values.\n    constructor() {\n        last = 0;\n        token = Token(tokenaddress);\n    }\n\n    // ------------------------------------------------------------STRUCTS------------------------------------------------------------\n\n\n\n    // First struct. The general one. Records all data about the program that will be computed.\n    struct ProgData {\n        uint n_players;     // The number of players in the SM network\n        string CA;          // The CA certificate, for players to sign their CRTs with it\n        uint reputation;\n        uint prime;         // The prime we will use for the operations\n        uint subscribed_players;\n        uint payment;\n        uint tokensPerItem;\n        uint MODL;\n        uint current_data;\n        uint ready_players;\n        uint finished_players;\n        uint succeeded;\n        uint scientist_vote;\n        uint aborted;\n        mapping (address => uint) elected;\n        mapping (uint => PlayerData) Players;       // This mapping will connect an integer (0-n_players) to each player's data: IP, CRT and CN\n        FilesLoc Files;     // In Files we record the locations (hashes) of the program files on IPFS.\n        StateType ContractState;                    // Here we update the state of the contract for each thrown program.\n    }\n\n    // Second struct. Inside ProgData. We record the data of each player.\n    struct PlayerData {\n        address account;    // We record the account for the future rewards that will be given to the players\n        string IP;          // The IP, CRT and CN of each player need to be recorded for the Setup of SM to be able to prove those CRTs\n        string CRT;         // and write them on NetworkData.txt\n        string CN;\n        uint data_length;\n        uint reputation;\n    }\n\n    // Third struct. Inside ProgData too. We record the locations of the files needed to run the mpc program in IPFS.\n    struct FilesLoc {\n        string BC;          // Hash of the folder containing the .bc and .sch files\n        string SCH;\n        string PREP;        // A program to preprocess the Excel table where the private data is. This program outputs a txt\n                            // where the data of the Excel file will be readable for the BC\n        string INFO;        // A file where some information is given about the program that will be computed and, of course, about\n                            // the kind of data that will be needed (type, units, how to write the Excel...)\n    }\n\n    // ------------------------------------------------------------EVENTS------------------------------------------------------------\n\n    // First event. This will log in the blockchain that an operation has been thrown. This way, all players will be able to know that\n    // an operation is about to happen and that it's time to sign up to it.\n    event newRequest(\n        uint i,\n        string info\n    );\n\n    event updatedRequest(\n        uint i,\n        string info\n    );\n\n    event operationThrown(\n        uint i\n    );\n\n    event operation_finished(\n        uint i\n    );\n    \n    // Second event. This will log in the blockchain that the subscription time has ended (since the required players have signed up).\n    // This event will tell the scientist if it's time to start the SM part.\n    event playersFilled(\n        uint i\n    );\n\n    // This event tells players that everyone has done the first Setup in SM. This way, they know that they can run the program securely.\n    event network_ready(\n        uint i\n    );\n\n    // -------------------------------------------------------OTHER VARIABLES-------------------------------------------------------\n\n    // This mapping keeps in its keys all the ProgData structs and their information. \n    mapping (uint => ProgData) Prog;\n    // This mappings record the reputations of players in the network.\n    mapping (address => uint) registered;\n    mapping (address => uint) reputations;\n\n    uint public last;                    // The last item that has a struct in Prog.\n\n    // There will be 3 states in this contract. The contract will give access to functions depending on its current state.\n    enum StateType {ThrowOperation, SubscribingTime, OperationPending, OperationThrown, NetworkReady, Finished}      \n    \n\n    // ------------------------------------------------------- CALLDATA FUNCTIONS -------------------------------------------------------\n\n    // The following function will return the actual contract state of a program for a user who wants to know.\n    function return_state(uint i) external view returns (StateType, string memory, string memory, uint) {\n        ProgData storage NewProg = Prog[i];\n        string memory text1;\n        string memory text2;\n        uint number;\n        if (NewProg.ContractState == StateType.SubscribingTime) {\n            text1 = \"We are at subscribing time\";\n            text2 = \"Subscribed players:\";\n            number = NewProg.subscribed_players;\n        }\n        else if (NewProg.ContractState == StateType.OperationPending) {\n            text1 = \"We are waiting for the data scientist to throw the operation\";\n            text2 = \"Subscribed players:\";\n            number = NewProg.subscribed_players;\n        }\n        else if (NewProg.ContractState == StateType.OperationThrown) {\n            text1 = \"We are waiting for all players to tell they are ready.\";\n            text2 = \"Ready players at this moment\";\n            number = NewProg.ready_players;\n        }\n        else if (NewProg.ContractState == StateType.NetworkReady) {\n            text1 = \"The network is ready to start the SCALE-MAMBA computations.\";\n            text2 = \"\";\n            number = 0;\n        }\n        return (NewProg.ContractState, text1, text2, number);\n    }\n    // This function returns Player[n]'s data (the IP, CRT and CN, in that order). This function cannot be called until all players \n    // required are subscribed, and only addresses who singed up to the operation can call it.\n    function return_PlayerData(uint n, uint i) external view returns (uint, string memory, string memory, string memory, uint) {\n        ProgData storage NewProg = Prog[i];\n        require (NewProg.ContractState == StateType.OperationThrown, \"You cannot execute this function at this moment.\");\n        require(NewProg.elected[msg.sender] == 1, \"You are not allowed to obtain this information.\");\n        require(NewProg.elected[NewProg.Players[n].account] != 0, \"This player is not elected, you cannot obtain the information.\");\n        uint my_n = 0;\n        if (msg.sender == NewProg.Players[n].account) {\n            my_n = 1;\n        }\n        return (n, NewProg.Players[n].IP, NewProg.Players[n].CRT, NewProg.Players[n].CN, my_n);\n    }\n    \n    function return_subscribed_n(uint i) external view returns (uint) {\n        ProgData storage NewProg = Prog[i];\n        require(NewProg.ContractState == StateType.OperationPending, \"You cannot execute this function at this moment.\");\n        require(msg.sender == NewProg.Players[0].account, \"You are not allowed to obtain this information.\");\n        return NewProg.subscribed_players;\n    }\n\n    function return_PlayerData_private(uint n, uint i) external view returns (address, uint) {\n        ProgData storage NewProg = Prog[i];\n        require(msg.sender == NewProg.Players[0].account, \"You cannot call this function.\");\n        require (NewProg.ContractState == StateType.OperationPending, \"You cannot execute this function at this moment.\");\n        return (NewProg.Players[n].account, NewProg.Players[n].data_length);\n    }\n\n    function _elected(uint i) external view returns (uint) {\n        ProgData storage NewProg = Prog[i];\n        require(NewProg.ContractState == StateType.OperationThrown, \"You cannot execute this function at this moment.\");\n        return NewProg.elected[msg.sender];\n    }\n\n    // This function returns the prime number that will be used in the program. Again, it can only be accesed when all players are \n    // signed up and they are the only ones that have access to it.\n    function return_prime(uint i) external view returns (uint) {\n        ProgData storage NewProg = Prog[i];\n        require (NewProg.ContractState == StateType.OperationThrown || NewProg.ContractState == StateType.Finished, \"You cannot execute this function at this moment.\");\n        require(NewProg.elected[msg.sender] == 1, \"You are not allowed to obtain this information.\");\n        return NewProg.prime;\n    }\n\n    // This function returns the required number of players. This function is needed to perform the Setup process properly. However,\n    // it could be of interest to know the required number of players whenever a player wants (it's not relevant data).\n    function return_n_players(uint i) external view returns (uint) {\n        ProgData storage NewProg = Prog[i];\n        require(NewProg.ContractState == StateType.OperationThrown, \"You cannot obtain this information at this moment.\");\n        require(NewProg.elected[msg.sender] == 1, \"You are not allowed to obtain this information.\");\n        return NewProg.n_players;\n    }\n\n    // This function returns the location of the documentation file about the program. We require, evidently, the program to be thrown,\n    // but this function can be called whenever a user wants. This is because this file will tell a player what kind of data is needed\n    // for this program, and how must it be writen in the Excel for the BC to be readable.\n    function return_info(uint i) external view returns (string memory) {\n        ProgData storage NewProg = Prog[i];\n        require (NewProg.ContractState != StateType.ThrowOperation, \"The file you are searching for is not uploaded yet. If you want, you can throw an operation to compute.\");\n        return NewProg.Files.INFO;\n    }\n\n    // This function returns the locations of the program files needed to run the Player. It cannot be called until all players are subscribed.\n    function return_locs(uint i) external view returns (string memory, string memory, string memory) {\n        ProgData storage NewProg = Prog[i];\n        require (NewProg.ContractState == StateType.OperationThrown, \"You cannot obtain this information yet.\");\n        require(NewProg.elected[msg.sender] == 1, \"You are not allowed to obtain this information.\");\n        return (NewProg.Files.BC, NewProg.Files.SCH, NewProg.Files.PREP);\n    }\n\n    // This function returns the CA certificate. Again, this function can be called whenever a user wants, since (I think) it could be\n    // needed before the Setup process.\n    function return_CA(uint i) external view returns (string memory) {\n        ProgData storage NewProg = Prog[i];\n        require(NewProg.ContractState == StateType.SubscribingTime || NewProg.ContractState == StateType.OperationThrown, \"You cannot obtain this information at this moment.\");\n        return NewProg.CA;\n    }\n\n    // This function outputs the upper and lower bounds of payments for participating in the SMPC of the program.\n    function return_payment(uint i) external view returns (uint, uint) {\n        ProgData storage NewProg = Prog[i];\n        return (NewProg.payment, NewProg.MODL);\n    }\n\n    // This function returns the reputation of a user.\n    function return_reputation() external view returns (uint) {\n        return reputations[msg.sender];\n    }\n\n    // This function returns the required reputation of a request.\n    function return_required_reputation(uint i) external view returns (uint) {\n        ProgData storage NewProg = Prog[i];\n        return NewProg.reputation;\n    }\n\n    // This function returns the required reputation of a request.\n    function return_MODL(uint i) external view returns (uint) {\n        ProgData storage NewProg = Prog[i];\n        return NewProg.MODL;\n    }\n\n    function return_registered() external view returns (uint) {\n        return registered[msg.sender];\n    }\n\n    //This function returns the amount of tokens a user has.\n    function balance() external view returns (uint) {\n        return token.balanceOf(msg.sender);\n    }\n\n\n    // -------------------------------------------------------AUXILIARY FUNCTIONS-------------------------------------------------------\n    \n\n    // This function returns a 0 if an account has already subscribed to the operation, and a 1 if it does not.\n    function account_repeated (uint j) public view returns (uint) {\n        ProgData storage NewProg = Prog[j];\n        uint result = 1;\n        for (uint i = 0; i < NewProg.subscribed_players; i++) {\n            if (NewProg.Players[i].account == msg.sender) {\n                result = 0;\n                break;\n            }\n        }\n        return result;\n    }\n\n    function withdraw(uint amount) external payable {\n        token.transfer(msg.sender, amount);\n    }\n\n    // ------------------------------------------------------- MAIN FUNCTIONS -------------------------------------------------------\n\n\n    // The following function updates the number of players that have picked up the SM networking information so far. When the number\n    // of players reaches the required number of players, an event is emitted, for the leader to know that the operation can be run.\n    function Im_ready(uint i) external {\n        ProgData storage NewProg = Prog[i];\n        require(NewProg.ContractState == StateType.OperationThrown, \"The contract cannot proccess your claim in its current state.\");\n        require(NewProg.elected[msg.sender] == 1, \"You are not allowed to tell you're ready.\");\n        NewProg.elected[msg.sender] = 2;\n        NewProg.ready_players += 1;\n        if (NewProg.ready_players == NewProg.n_players) {\n            emit network_ready(i);\n            NewProg.ContractState = StateType.NetworkReady;\n        }\n    }\n\n    function finished(uint i, uint success) external {\n        ProgData storage NewProg = Prog[i];\n        require(NewProg.ContractState == StateType.NetworkReady, \"The contract cannot proccess your claim in its current state.\");\n        require(NewProg.elected[msg.sender] == 2, \"You are not allowed to tell you've finished.\");\n        if (msg.sender == NewProg.Players[0].account) {\n            NewProg.scientist_vote = success;\n        }\n        NewProg.elected[msg.sender] = 3;\n        NewProg.finished_players += 1;\n        if (success == 0) {\n            NewProg.aborted += 1;\n        } else {\n            NewProg.succeeded += 1;\n        }\n        if (NewProg.finished_players == NewProg.n_players) {\n            emit operation_finished(i);\n            if (NewProg.succeeded > NewProg.aborted) {\n                pay_to_players(i);\n            } else if (NewProg.succeeded == NewProg.aborted) {\n                if (NewProg.scientist_vote == 1) {\n                    pay_to_players(i);\n                }\n            }\n            NewProg.ContractState = StateType.Finished;\n        }\n    }\n\n    // All players, when registering in the marketplace, start with an initial reputation of 50 points. This reputation may\n    // increase or decrease depending on their success when participating in SMPC requests.\n    function register() external {\n        require(registered[msg.sender] == 0, \"You already registered in the marketplace.\");\n        registered[msg.sender] = 1;\n        reputations[msg.sender] = 50;\n    }\n\n    // The signing up function is responsible for taking all the necessary information about the players that will form the SCALE-MAMBA network.\n    // Inside it, we update the ProgData struct with all the new information about the player. When we reach the required number of players,\n    // the players_filled event is logged into the blockchain, telling the leader that it is time to start the operation.\n    function signup(uint my_data_length, string calldata myIP, string calldata myCRT, string calldata myCN, uint i, uint _reputation) external {\n        require(reputations[msg.sender] >= _reputation, \"You gambled more reputation than the one you have.\");\n        ProgData storage NewProg = Prog[i];\n        require (NewProg.ContractState == StateType.SubscribingTime, \"The contract cannot proccess your claim in its current state.\");\n        require (account_repeated(i) == 1, \"You already have signed up for this operation.\");\n        require (_reputation >= NewProg.reputation, \"Your reputation is not enough to participate in this SMPC.\");\n        require (my_data_length < NewProg.MODL, \"Your data length must be less than the MODL.\");\n        reputations[msg.sender] -= _reputation;\n        NewProg.Players[NewProg.subscribed_players] = PlayerData(\n            {\n                account: msg.sender,\n                IP: myIP,\n                CRT: myCRT,\n                CN: myCN,\n                data_length: my_data_length,\n                reputation: _reputation\n            }\n        );\n        NewProg.subscribed_players += 1;\n        NewProg.current_data += my_data_length;\n        if (NewProg.current_data >= NewProg.MODL) {\n            NewProg.ContractState = StateType.OperationPending;\n            emit playersFilled(i);\n        }\n    }\n    \n    function update_request(uint i, string[4] memory str_items, uint my_data_length, uint _MODL, uint min_reputation, uint tokens) external {\n        // str_items = [CA, IP, CRT, CN]\n        require(reputations[msg.sender] >= min_reputation, \"You required more reputation than the one you have.\");\n        require(token.balanceOf(msg.sender) >= tokens, \"You promised more tokens than the ones you have.\");\n        require (i <= last, \"There is no previous operation to update at this index.\");\n        ProgData storage NewProg = Prog[i];\n        require (NewProg.ContractState == StateType.Finished, \"This program has not finished yet. You cannot update it.\");\n        for (uint j = 0; j < NewProg.subscribed_players; j++) {\n            NewProg.elected[NewProg.Players[j].account] = 0;\n        }\n        NewProg.CA = str_items[0];\n        NewProg.reputation = min_reputation;\n        reputations[msg.sender] -= min_reputation;\n        NewProg.ContractState = StateType.SubscribingTime;\n        NewProg.ready_players = 0;\n        NewProg.finished_players = 0;\n        NewProg.aborted = 0;\n        NewProg.succeeded = 0;\n        NewProg.scientist_vote = 0;\n        NewProg.subscribed_players = 1;\n        NewProg.MODL = _MODL;\n        NewProg.payment = tokens;\n        NewProg.current_data = my_data_length;\n        NewProg.Players[0] = PlayerData(\n            {\n                account: msg.sender,\n                IP: str_items[1],\n                CRT: str_items[2],\n                CN: str_items[3],\n                data_length: my_data_length,\n                reputation: min_reputation\n            }\n        );\n        // Before calling this function we need to call the approve(tokenaddress, amount) from Token.sol\n        token.transferFrom(msg.sender, address(this), tokens);\n        emit updatedRequest(i, NewProg.Files.INFO);\n    }\n\n    // This function is the one that is called when throwing an operation. It updates the struct of the contract and tells the other\n    // users that a new operation is thrown.\n    function new_request(string[6] memory str_items, uint my_data_length, uint _MODL, uint min_reputation, uint tokens) external {\n        // str_items = [CA, IP, CRT, CN, PREPROCESSING, INFORMATION]\n        require(reputations[msg.sender] >= min_reputation, \"You required more reputation than the one you have.\");\n        require(token.balanceOf(msg.sender) >= tokens, \"You promised more tokens than the ones you have.\");\n        last = last + 1;\n        ProgData storage NewProg = Prog[last];\n        NewProg.CA = str_items[0];\n        NewProg.reputation = min_reputation;\n        reputations[msg.sender] -= min_reputation;\n        NewProg.ContractState = StateType.SubscribingTime;\n        NewProg.subscribed_players = 1;\n        NewProg.MODL = _MODL;\n        NewProg.payment = tokens;\n        NewProg.current_data = my_data_length;\n        NewProg.Players[0] = PlayerData(\n            {\n                account: msg.sender,\n                IP: str_items[1],\n                CRT: str_items[2],\n                CN: str_items[3],\n                data_length: my_data_length,\n                reputation: min_reputation\n            }\n        );\n        NewProg.Files.PREP = str_items[4];\n        NewProg.Files.INFO = str_items[5];\n        // Before calling this function we need to call the approve(tokenaddress, amount) from Token.sol\n        token.transferFrom(msg.sender, address(this), tokens);\n        emit newRequest(last, str_items[5]);\n    }\n\n    function throw_operation(uint prime, address[] calldata elected_players, string calldata BC_hash, string calldata SCH_hash, uint i, uint actual_payment) external {\n        ProgData storage NewProg = Prog[i];\n        require(NewProg.ContractState == StateType.OperationPending, \"You cannot call this function at this moment.\");\n        require(msg.sender == NewProg.Players[0].account, \"You are not who made the request for this operation.\");\n        NewProg.prime = prime;\n        NewProg.tokensPerItem = actual_payment;\n        NewProg.n_players = elected_players.length;\n        for (uint j = 0; j < NewProg.n_players; j++) {\n            NewProg.elected[elected_players[j]] = 1;\n        }\n        NewProg.elected[msg.sender] = 1;\n        NewProg.n_players += 1;\n        NewProg.Files.BC = BC_hash;\n        NewProg.Files.SCH = SCH_hash;\n        NewProg.ContractState = StateType.OperationThrown;\n        emit operationThrown(i);\n    }\n\n    function pay_to_players(uint i) public payable {\n        ProgData storage NewProg = Prog[i];\n        uint j;\n        reputations[NewProg.Players[0].account] += 2 * NewProg.reputation;\n        for (j = 1; j < NewProg.n_players; j++) {\n            if (NewProg.elected[NewProg.Players[j].account] != 0) {\n                reputations[NewProg.Players[j].account] += 2 * NewProg.Players[j].reputation;\n                uint amount = NewProg.tokensPerItem * NewProg.Players[j].data_length;\n                token.transfer(NewProg.Players[j].account, amount);\n            }\n        }\n    }\n}",
  "sourcePath": "/home/julen/Documentos/SMPC/sc-blockchain-integration/contracts/subscribe.sol",
  "compiler": {
    "name": "solc",
    "version": "0.8.1+commit.df193b15.Emscripten.clang"
  },
  "schemaVersion": "3.3.4",
  "updatedAt": "2021-06-24T10:46:58.122Z",
  "networkType": "ethereum",
  "devdoc": {
    "kind": "dev",
    "methods": {},
    "version": 1
  },
  "userdoc": {
    "kind": "user",
    "methods": {},
    "version": 1
  }
}