{
  "contractName": "Token",
  "abi": [
    {
      "inputs": [],
      "stateMutability": "nonpayable",
      "type": "constructor"
    },
    {
      "anonymous": false,
      "inputs": [
        {
          "indexed": true,
          "internalType": "address",
          "name": "owner",
          "type": "address"
        },
        {
          "indexed": true,
          "internalType": "address",
          "name": "spender",
          "type": "address"
        },
        {
          "indexed": false,
          "internalType": "uint256",
          "name": "value",
          "type": "uint256"
        }
      ],
      "name": "Approval",
      "type": "event"
    },
    {
      "anonymous": false,
      "inputs": [
        {
          "indexed": true,
          "internalType": "address",
          "name": "from",
          "type": "address"
        },
        {
          "indexed": true,
          "internalType": "address",
          "name": "to",
          "type": "address"
        },
        {
          "indexed": false,
          "internalType": "uint256",
          "name": "value",
          "type": "uint256"
        }
      ],
      "name": "Transfer",
      "type": "event"
    },
    {
      "inputs": [
        {
          "internalType": "address",
          "name": "owner",
          "type": "address"
        },
        {
          "internalType": "address",
          "name": "spender",
          "type": "address"
        }
      ],
      "name": "allowance",
      "outputs": [
        {
          "internalType": "uint256",
          "name": "",
          "type": "uint256"
        }
      ],
      "stateMutability": "view",
      "type": "function",
      "constant": true
    },
    {
      "inputs": [
        {
          "internalType": "address",
          "name": "spender",
          "type": "address"
        },
        {
          "internalType": "uint256",
          "name": "amount",
          "type": "uint256"
        }
      ],
      "name": "approve",
      "outputs": [
        {
          "internalType": "bool",
          "name": "",
          "type": "bool"
        }
      ],
      "stateMutability": "nonpayable",
      "type": "function"
    },
    {
      "inputs": [
        {
          "internalType": "address",
          "name": "account",
          "type": "address"
        }
      ],
      "name": "balanceOf",
      "outputs": [
        {
          "internalType": "uint256",
          "name": "",
          "type": "uint256"
        }
      ],
      "stateMutability": "view",
      "type": "function",
      "constant": true
    },
    {
      "inputs": [],
      "name": "decimals",
      "outputs": [
        {
          "internalType": "uint8",
          "name": "",
          "type": "uint8"
        }
      ],
      "stateMutability": "view",
      "type": "function",
      "constant": true
    },
    {
      "inputs": [
        {
          "internalType": "address",
          "name": "spender",
          "type": "address"
        },
        {
          "internalType": "uint256",
          "name": "subtractedValue",
          "type": "uint256"
        }
      ],
      "name": "decreaseAllowance",
      "outputs": [
        {
          "internalType": "bool",
          "name": "",
          "type": "bool"
        }
      ],
      "stateMutability": "nonpayable",
      "type": "function"
    },
    {
      "inputs": [
        {
          "internalType": "address",
          "name": "spender",
          "type": "address"
        },
        {
          "internalType": "uint256",
          "name": "addedValue",
          "type": "uint256"
        }
      ],
      "name": "increaseAllowance",
      "outputs": [
        {
          "internalType": "bool",
          "name": "",
          "type": "bool"
        }
      ],
      "stateMutability": "nonpayable",
      "type": "function"
    },
    {
      "inputs": [],
      "name": "name",
      "outputs": [
        {
          "internalType": "string",
          "name": "",
          "type": "string"
        }
      ],
      "stateMutability": "view",
      "type": "function",
      "constant": true
    },
    {
      "inputs": [],
      "name": "symbol",
      "outputs": [
        {
          "internalType": "string",
          "name": "",
          "type": "string"
        }
      ],
      "stateMutability": "view",
      "type": "function",
      "constant": true
    },
    {
      "inputs": [],
      "name": "totalSupply",
      "outputs": [
        {
          "internalType": "uint256",
          "name": "",
          "type": "uint256"
        }
      ],
      "stateMutability": "view",
      "type": "function",
      "constant": true
    },
    {
      "inputs": [
        {
          "internalType": "address",
          "name": "recipient",
          "type": "address"
        },
        {
          "internalType": "uint256",
          "name": "amount",
          "type": "uint256"
        }
      ],
      "name": "transfer",
      "outputs": [
        {
          "internalType": "bool",
          "name": "",
          "type": "bool"
        }
      ],
      "stateMutability": "nonpayable",
      "type": "function"
    },
    {
      "inputs": [
        {
          "internalType": "address",
          "name": "sender",
          "type": "address"
        },
        {
          "internalType": "address",
          "name": "recipient",
          "type": "address"
        },
        {
          "internalType": "uint256",
          "name": "amount",
          "type": "uint256"
        }
      ],
      "name": "transferFrom",
      "outputs": [
        {
          "internalType": "bool",
          "name": "",
          "type": "bool"
        }
      ],
      "stateMutability": "nonpayable",
      "type": "function"
    },
    {
      "inputs": [
        {
          "internalType": "uint256",
          "name": "amount",
          "type": "uint256"
        }
      ],
      "name": "withdraw",
      "outputs": [],
      "stateMutability": "nonpayable",
      "type": "function"
    }
  ],
  "bytecode": "0x60806040523480156200001157600080fd5b506040518060400160405280600581526020017f546f6b656e0000000000000000000000000000000000000000000000000000008152506040518060400160405280600181526020017f540000000000000000000000000000000000000000000000000000000000000081525081600390805190602001906200009692919062000344565b508060049080519060200190620000af92919062000344565b506012600560006101000a81548160ff021916908360ff16021790555050506200011030620000e36200011660201b60201c565b60ff16600a620000f491906200057d565b620f4240620001049190620006ba565b6200012d60201b60201c565b62000818565b6000600560009054906101000a900460ff16905090565b600073ffffffffffffffffffffffffffffffffffffffff168273ffffffffffffffffffffffffffffffffffffffff161415620001a0576040517f08c379a0000000000000000000000000000000000000000000000000000000008152600401620001979062000475565b60405180910390fd5b620001b460008383620002dc60201b60201c565b620001d081600254620002e160201b620007d71790919060201c565b6002819055506200022e816000808573ffffffffffffffffffffffffffffffffffffffff1673ffffffffffffffffffffffffffffffffffffffff16815260200190815260200160002054620002e160201b620007d71790919060201c565b6000808473ffffffffffffffffffffffffffffffffffffffff1673ffffffffffffffffffffffffffffffffffffffff168152602001908152602001600020819055508173ffffffffffffffffffffffffffffffffffffffff16600073ffffffffffffffffffffffffffffffffffffffff167fddf252ad1be2c89b69c2b068fc378daa952ba7f163c4a11628f55a4df523b3ef83604051620002d0919062000497565b60405180910390a35050565b505050565b6000808284620002f29190620004c5565b9050838110156200033a576040517f08c379a0000000000000000000000000000000000000000000000000000000008152600401620003319062000453565b60405180910390fd5b8091505092915050565b828054620003529062000725565b90600052602060002090601f016020900481019282620003765760008555620003c2565b82601f106200039157805160ff1916838001178555620003c2565b82800160010185558215620003c2579182015b82811115620003c1578251825591602001919060010190620003a4565b5b509050620003d19190620003d5565b5090565b5b80821115620003f0576000816000905550600101620003d6565b5090565b600062000403601b83620004b4565b91506200041082620007c6565b602082019050919050565b60006200042a601f83620004b4565b91506200043782620007ef565b602082019050919050565b6200044d816200071b565b82525050565b600060208201905081810360008301526200046e81620003f4565b9050919050565b6000602082019050818103600083015262000490816200041b565b9050919050565b6000602082019050620004ae600083018462000442565b92915050565b600082825260208201905092915050565b6000620004d2826200071b565b9150620004df836200071b565b9250827fffffffffffffffffffffffffffffffffffffffffffffffffffffffffffffffff038211156200051757620005166200075b565b5b828201905092915050565b6000808291508390505b600185111562000574578086048111156200054c576200054b6200075b565b5b60018516156200055c5780820291505b80810290506200056c85620007b9565b94506200052c565b94509492505050565b60006200058a826200071b565b915062000597836200071b565b9250620005c67fffffffffffffffffffffffffffffffffffffffffffffffffffffffffffffffff8484620005ce565b905092915050565b600082620005e05760019050620006b3565b81620005f05760009050620006b3565b816001811462000609576002811462000614576200064a565b6001915050620006b3565b60ff8411156200062957620006286200075b565b5b8360020a9150848211156200064357620006426200075b565b5b50620006b3565b5060208310610133831016604e8410600b8410161715620006845782820a9050838111156200067e576200067d6200075b565b5b620006b3565b62000693848484600162000522565b92509050818404811115620006ad57620006ac6200075b565b5b81810290505b9392505050565b6000620006c7826200071b565b9150620006d4836200071b565b9250817fffffffffffffffffffffffffffffffffffffffffffffffffffffffffffffffff048311821515161562000710576200070f6200075b565b5b828202905092915050565b6000819050919050565b600060028204905060018216806200073e57607f821691505b602082108114156200075557620007546200078a565b5b50919050565b7f4e487b7100000000000000000000000000000000000000000000000000000000600052601160045260246000fd5b7f4e487b7100000000000000000000000000000000000000000000000000000000600052602260045260246000fd5b60008160011c9050919050565b7f536166654d6174683a206164646974696f6e206f766572666c6f770000000000600082015250565b7f45524332303a206d696e7420746f20746865207a65726f206164647265737300600082015250565b61150380620008286000396000f3fe608060405234801561001057600080fd5b50600436106100b45760003560e01c80633950935111610071578063395093511461018f57806370a08231146101bf57806395d89b41146101ef578063a457c2d71461020d578063a9059cbb1461023d578063dd62ed3e1461026d576100b4565b806306fdde03146100b9578063095ea7b3146100d757806318160ddd1461010757806323b872dd146101255780632e1a7d4d14610155578063313ce56714610171575b600080fd5b6100c161029d565b6040516100ce9190610fe9565b60405180910390f35b6100f160048036038101906100ec9190610df3565b61032f565b6040516100fe9190610fce565b60405180910390f35b61010f61034d565b60405161011c91906110ab565b60405180910390f35b61013f600480360381019061013a9190610da4565b610357565b60405161014c9190610fce565b60405180910390f35b61016f600480360381019061016a9190610e58565b610430565b005b6101796104c1565b60405161018691906110c6565b60405180910390f35b6101a960048036038101906101a49190610df3565b6104d8565b6040516101b69190610fce565b60405180910390f35b6101d960048036038101906101d49190610d3f565b61058b565b6040516101e691906110ab565b60405180910390f35b6101f76105d3565b6040516102049190610fe9565b60405180910390f35b61022760048036038101906102229190610df3565b610665565b6040516102349190610fce565b60405180910390f35b61025760048036038101906102529190610df3565b610732565b6040516102649190610fce565b60405180910390f35b61028760048036038101906102829190610d68565b610750565b60405161029491906110ab565b60405180910390f35b6060600380546102ac9061120f565b80601f01602080910402602001604051908101604052809291908181526020018280546102d89061120f565b80156103255780601f106102fa57610100808354040283529160200191610325565b820191906000526020600020905b81548152906001019060200180831161030857829003601f168201915b5050505050905090565b600061034361033c610835565b848461083d565b6001905092915050565b6000600254905090565b6000610364848484610a08565b61042584610370610835565b6104208560405180606001604052806028815260200161148160289139600160008b73ffffffffffffffffffffffffffffffffffffffff1673ffffffffffffffffffffffffffffffffffffffff16815260200190815260200160002060006103d6610835565b73ffffffffffffffffffffffffffffffffffffffff1673ffffffffffffffffffffffffffffffffffffffff16815260200190815260200160002054610c9d9092919063ffffffff16565b61083d565b600190509392505050565b3073ffffffffffffffffffffffffffffffffffffffff1663a9059cbb33836040518363ffffffff1660e01b815260040161046b929190610fa5565b602060405180830381600087803b15801561048557600080fd5b505af1158015610499573d6000803e3d6000fd5b505050506040513d601f19601f820116820180604052508101906104bd9190610e2f565b5050565b6000600560009054906101000a900460ff16905090565b60006105816104e5610835565b8461057c85600160006104f6610835565b73ffffffffffffffffffffffffffffffffffffffff1673ffffffffffffffffffffffffffffffffffffffff16815260200190815260200160002060008973ffffffffffffffffffffffffffffffffffffffff1673ffffffffffffffffffffffffffffffffffffffff168152602001908152602001600020546107d790919063ffffffff16565b61083d565b6001905092915050565b60008060008373ffffffffffffffffffffffffffffffffffffffff1673ffffffffffffffffffffffffffffffffffffffff168152602001908152602001600020549050919050565b6060600480546105e29061120f565b80601f016020809104026020016040519081016040528092919081815260200182805461060e9061120f565b801561065b5780601f106106305761010080835404028352916020019161065b565b820191906000526020600020905b81548152906001019060200180831161063e57829003601f168201915b5050505050905090565b6000610728610672610835565b84610723856040518060600160405280602581526020016114a9602591396001600061069c610835565b73ffffffffffffffffffffffffffffffffffffffff1673ffffffffffffffffffffffffffffffffffffffff16815260200190815260200160002060008a73ffffffffffffffffffffffffffffffffffffffff1673ffffffffffffffffffffffffffffffffffffffff16815260200190815260200160002054610c9d9092919063ffffffff16565b61083d565b6001905092915050565b600061074661073f610835565b8484610a08565b6001905092915050565b6000600160008473ffffffffffffffffffffffffffffffffffffffff1673ffffffffffffffffffffffffffffffffffffffff16815260200190815260200160002060008373ffffffffffffffffffffffffffffffffffffffff1673ffffffffffffffffffffffffffffffffffffffff16815260200190815260200160002054905092915050565b60008082846107e691906110fd565b90508381101561082b576040517f08c379a00000000000000000000000000000000000000000000000000000000081526004016108229061104b565b60405180910390fd5b8091505092915050565b600033905090565b600073ffffffffffffffffffffffffffffffffffffffff168373ffffffffffffffffffffffffffffffffffffffff1614156108ad576040517f08c379a00000000000000000000000000000000000000000000000000000000081526004016108a49061108b565b60405180910390fd5b600073ffffffffffffffffffffffffffffffffffffffff168273ffffffffffffffffffffffffffffffffffffffff16141561091d576040517f08c379a00000000000000000000000000000000000000000000000000000000081526004016109149061102b565b60405180910390fd5b80600160008573ffffffffffffffffffffffffffffffffffffffff1673ffffffffffffffffffffffffffffffffffffffff16815260200190815260200160002060008473ffffffffffffffffffffffffffffffffffffffff1673ffffffffffffffffffffffffffffffffffffffff168152602001908152602001600020819055508173ffffffffffffffffffffffffffffffffffffffff168373ffffffffffffffffffffffffffffffffffffffff167f8c5be1e5ebec7d5bd14f71427d1e84f3dd0314c0f7b2291e5b200ac8c7c3b925836040516109fb91906110ab565b60405180910390a3505050565b600073ffffffffffffffffffffffffffffffffffffffff168373ffffffffffffffffffffffffffffffffffffffff161415610a78576040517f08c379a0000000000000000000000000000000000000000000000000000000008152600401610a6f9061106b565b60405180910390fd5b600073ffffffffffffffffffffffffffffffffffffffff168273ffffffffffffffffffffffffffffffffffffffff161415610ae8576040517f08c379a0000000000000000000000000000000000000000000000000000000008152600401610adf9061100b565b60405180910390fd5b610af3838383610cfb565b610b5e8160405180606001604052806026815260200161145b602691396000808773ffffffffffffffffffffffffffffffffffffffff1673ffffffffffffffffffffffffffffffffffffffff16815260200190815260200160002054610c9d9092919063ffffffff16565b6000808573ffffffffffffffffffffffffffffffffffffffff1673ffffffffffffffffffffffffffffffffffffffff16815260200190815260200160002081905550610bf1816000808573ffffffffffffffffffffffffffffffffffffffff1673ffffffffffffffffffffffffffffffffffffffff168152602001908152602001600020546107d790919063ffffffff16565b6000808473ffffffffffffffffffffffffffffffffffffffff1673ffffffffffffffffffffffffffffffffffffffff168152602001908152602001600020819055508173ffffffffffffffffffffffffffffffffffffffff168373ffffffffffffffffffffffffffffffffffffffff167fddf252ad1be2c89b69c2b068fc378daa952ba7f163c4a11628f55a4df523b3ef83604051610c9091906110ab565b60405180910390a3505050565b6000838311158290610ce5576040517f08c379a0000000000000000000000000000000000000000000000000000000008152600401610cdc9190610fe9565b60405180910390fd5b508284610cf29190611153565b90509392505050565b505050565b600081359050610d0f81611415565b92915050565b600081519050610d248161142c565b92915050565b600081359050610d3981611443565b92915050565b600060208284031215610d5157600080fd5b6000610d5f84828501610d00565b91505092915050565b60008060408385031215610d7b57600080fd5b6000610d8985828601610d00565b9250506020610d9a85828601610d00565b9150509250929050565b600080600060608486031215610db957600080fd5b6000610dc786828701610d00565b9350506020610dd886828701610d00565b9250506040610de986828701610d2a565b9150509250925092565b60008060408385031215610e0657600080fd5b6000610e1485828601610d00565b9250506020610e2585828601610d2a565b9150509250929050565b600060208284031215610e4157600080fd5b6000610e4f84828501610d15565b91505092915050565b600060208284031215610e6a57600080fd5b6000610e7884828501610d2a565b91505092915050565b610e8a81611187565b82525050565b610e9981611199565b82525050565b6000610eaa826110e1565b610eb481856110ec565b9350610ec48185602086016111dc565b610ecd8161129f565b840191505092915050565b6000610ee56023836110ec565b9150610ef0826112b0565b604082019050919050565b6000610f086022836110ec565b9150610f13826112ff565b604082019050919050565b6000610f2b601b836110ec565b9150610f368261134e565b602082019050919050565b6000610f4e6025836110ec565b9150610f5982611377565b604082019050919050565b6000610f716024836110ec565b9150610f7c826113c6565b604082019050919050565b610f90816111c5565b82525050565b610f9f816111cf565b82525050565b6000604082019050610fba6000830185610e81565b610fc76020830184610f87565b9392505050565b6000602082019050610fe36000830184610e90565b92915050565b600060208201905081810360008301526110038184610e9f565b905092915050565b6000602082019050818103600083015261102481610ed8565b9050919050565b6000602082019050818103600083015261104481610efb565b9050919050565b6000602082019050818103600083015261106481610f1e565b9050919050565b6000602082019050818103600083015261108481610f41565b9050919050565b600060208201905081810360008301526110a481610f64565b9050919050565b60006020820190506110c06000830184610f87565b92915050565b60006020820190506110db6000830184610f96565b92915050565b600081519050919050565b600082825260208201905092915050565b6000611108826111c5565b9150611113836111c5565b9250827fffffffffffffffffffffffffffffffffffffffffffffffffffffffffffffffff0382111561114857611147611241565b5b828201905092915050565b600061115e826111c5565b9150611169836111c5565b92508282101561117c5761117b611241565b5b828203905092915050565b6000611192826111a5565b9050919050565b60008115159050919050565b600073ffffffffffffffffffffffffffffffffffffffff82169050919050565b6000819050919050565b600060ff82169050919050565b60005b838110156111fa5780820151818401526020810190506111df565b83811115611209576000848401525b50505050565b6000600282049050600182168061122757607f821691505b6020821081141561123b5761123a611270565b5b50919050565b7f4e487b7100000000000000000000000000000000000000000000000000000000600052601160045260246000fd5b7f4e487b7100000000000000000000000000000000000000000000000000000000600052602260045260246000fd5b6000601f19601f8301169050919050565b7f45524332303a207472616e7366657220746f20746865207a65726f206164647260008201527f6573730000000000000000000000000000000000000000000000000000000000602082015250565b7f45524332303a20617070726f766520746f20746865207a65726f20616464726560008201527f7373000000000000000000000000000000000000000000000000000000000000602082015250565b7f536166654d6174683a206164646974696f6e206f766572666c6f770000000000600082015250565b7f45524332303a207472616e736665722066726f6d20746865207a65726f20616460008201527f6472657373000000000000000000000000000000000000000000000000000000602082015250565b7f45524332303a20617070726f76652066726f6d20746865207a65726f2061646460008201527f7265737300000000000000000000000000000000000000000000000000000000602082015250565b61141e81611187565b811461142957600080fd5b50565b61143581611199565b811461144057600080fd5b50565b61144c816111c5565b811461145757600080fd5b5056fe45524332303a207472616e7366657220616d6f756e7420657863656564732062616c616e636545524332303a207472616e7366657220616d6f756e74206578636565647320616c6c6f77616e636545524332303a2064656372656173656420616c6c6f77616e63652062656c6f77207a65726fa2646970667358221220f1d2ac4cc00cad2ad8d016982370f83b406f92caaff009f7f498ba125eb1e8ad64736f6c63430008010033",
  "immutableReferences": {},
  "source": "// SPDX-License-Identifier: MIT\npragma solidity ^0.8.0;\n\nimport \"./ERC20/ERC20.sol\";\n\ncontract Token is ERC20 {\n    constructor() ERC20(\"Token\", \"T\") {\n        _mint(address(this), 1000000 * (10 **uint256(decimals()))); \n        /* Notice that _msgSender() and decimals() are functions from the ERC20 contract\n        from OpenZeppelin. Inside decimals() function it returns a uint with value 18 (so\n        we are introducing 18 decimals))\n        \n        This way, we have created 1 million tokens, where each token has 18 decimals.*/\n    }\n\n    function withdraw(uint amount) public {\n        this.transfer(msg.sender, amount);\n    }\n}",
  "sourcePath": "/home/julen/julen/paper-tfm/SMPC-BCK/marketplace/contracts/token/Token.sol",
  "compiler": {
    "name": "solc",
    "version": "0.8.1+commit.df193b15.Emscripten.clang"
  },
  "schemaVersion": "3.4.14",
  "updatedAt": "2023-06-07T15:08:43.935Z",
  "networkType": "ethereum",
  "devdoc": {
    "kind": "dev",
    "methods": {
      "allowance(address,address)": {
        "details": "See {IERC20-allowance}."
      },
      "approve(address,uint256)": {
        "details": "See {IERC20-approve}. Requirements: - `spender` cannot be the zero address."
      },
      "balanceOf(address)": {
        "details": "See {IERC20-balanceOf}."
      },
      "decimals()": {
        "details": "Returns the number of decimals used to get its user representation. For example, if `decimals` equals `2`, a balance of `505` tokens should be displayed to a user as `5,05` (`505 / 10 ** 2`). Tokens usually opt for a value of 18, imitating the relationship between Ether and Wei. This is the value {ERC20} uses, unless {_setupDecimals} is called. NOTE: This information is only used for _display_ purposes: it in no way affects any of the arithmetic of the contract, including {IERC20-balanceOf} and {IERC20-transfer}."
      },
      "decreaseAllowance(address,uint256)": {
        "details": "Atomically decreases the allowance granted to `spender` by the caller. This is an alternative to {approve} that can be used as a mitigation for problems described in {IERC20-approve}. Emits an {Approval} event indicating the updated allowance. Requirements: - `spender` cannot be the zero address. - `spender` must have allowance for the caller of at least `subtractedValue`."
      },
      "increaseAllowance(address,uint256)": {
        "details": "Atomically increases the allowance granted to `spender` by the caller. This is an alternative to {approve} that can be used as a mitigation for problems described in {IERC20-approve}. Emits an {Approval} event indicating the updated allowance. Requirements: - `spender` cannot be the zero address."
      },
      "name()": {
        "details": "Returns the name of the token."
      },
      "symbol()": {
        "details": "Returns the symbol of the token, usually a shorter version of the name."
      },
      "totalSupply()": {
        "details": "See {IERC20-totalSupply}."
      },
      "transfer(address,uint256)": {
        "details": "See {IERC20-transfer}. Requirements: - `recipient` cannot be the zero address. - the caller must have a balance of at least `amount`."
      },
      "transferFrom(address,address,uint256)": {
        "details": "See {IERC20-transferFrom}. Emits an {Approval} event indicating the updated allowance. This is not required by the EIP. See the note at the beginning of {ERC20}. Requirements: - `sender` and `recipient` cannot be the zero address. - `sender` must have a balance of at least `amount`. - the caller must have allowance for ``sender``'s tokens of at least `amount`."
      }
    },
    "version": 1
  },
  "userdoc": {
    "kind": "user",
    "methods": {},
    "version": 1
  }
}