{
  "contractName": "marketplace",
  "abi": [
    {
      "inputs": [
        {
          "internalType": "address",
          "name": "tokenaddress",
          "type": "address"
        }
      ],
      "stateMutability": "nonpayable",
      "type": "constructor"
    },
    {
      "anonymous": false,
      "inputs": [
        {
          "indexed": false,
          "internalType": "uint256",
          "name": "i",
          "type": "uint256"
        },
        {
          "indexed": false,
          "internalType": "uint256",
          "name": "bin",
          "type": "uint256"
        }
      ],
      "name": "execution_failed",
      "type": "event"
    },
    {
      "anonymous": false,
      "inputs": [
        {
          "indexed": false,
          "internalType": "uint256",
          "name": "i",
          "type": "uint256"
        },
        {
          "indexed": false,
          "internalType": "uint256",
          "name": "bin",
          "type": "uint256"
        }
      ],
      "name": "execution_finished",
      "type": "event"
    },
    {
      "anonymous": false,
      "inputs": [
        {
          "indexed": false,
          "internalType": "uint256",
          "name": "i",
          "type": "uint256"
        },
        {
          "indexed": false,
          "internalType": "uint256",
          "name": "bin",
          "type": "uint256"
        }
      ],
      "name": "execution_ready",
      "type": "event"
    },
    {
      "anonymous": false,
      "inputs": [
        {
          "indexed": false,
          "internalType": "uint256",
          "name": "i",
          "type": "uint256"
        },
        {
          "indexed": false,
          "internalType": "uint256",
          "name": "bin",
          "type": "uint256"
        }
      ],
      "name": "execution_successful",
      "type": "event"
    },
    {
      "anonymous": false,
      "inputs": [
        {
          "indexed": false,
          "internalType": "uint256",
          "name": "i",
          "type": "uint256"
        },
        {
          "indexed": false,
          "internalType": "string",
          "name": "info",
          "type": "string"
        }
      ],
      "name": "new_campaign",
      "type": "event"
    },
    {
      "anonymous": false,
      "inputs": [
        {
          "indexed": false,
          "internalType": "uint256",
          "name": "i",
          "type": "uint256"
        }
      ],
      "name": "players_filled",
      "type": "event"
    },
    {
      "anonymous": false,
      "inputs": [
        {
          "indexed": false,
          "internalType": "uint256",
          "name": "i",
          "type": "uint256"
        },
        {
          "indexed": false,
          "internalType": "uint256",
          "name": "bin",
          "type": "uint256"
        }
      ],
      "name": "scientist_ready",
      "type": "event"
    },
    {
      "anonymous": false,
      "inputs": [
        {
          "indexed": false,
          "internalType": "uint256",
          "name": "i",
          "type": "uint256"
        },
        {
          "indexed": false,
          "internalType": "string",
          "name": "info",
          "type": "string"
        }
      ],
      "name": "updated_campaign",
      "type": "event"
    },
    {
      "inputs": [],
      "name": "last",
      "outputs": [
        {
          "internalType": "uint256",
          "name": "",
          "type": "uint256"
        }
      ],
      "stateMutability": "view",
      "type": "function",
      "constant": true
    },
    {
      "inputs": [
        {
          "internalType": "uint256",
          "name": "i",
          "type": "uint256"
        }
      ],
      "name": "getCampaignState",
      "outputs": [
        {
          "internalType": "enum marketplace.StateType",
          "name": "",
          "type": "uint8"
        },
        {
          "internalType": "string",
          "name": "",
          "type": "string"
        },
        {
          "internalType": "string",
          "name": "",
          "type": "string"
        },
        {
          "internalType": "uint256",
          "name": "",
          "type": "uint256"
        }
      ],
      "stateMutability": "view",
      "type": "function",
      "constant": true
    },
    {
      "inputs": [
        {
          "internalType": "uint256",
          "name": "i",
          "type": "uint256"
        }
      ],
      "name": "getMPCPath",
      "outputs": [
        {
          "internalType": "string",
          "name": "",
          "type": "string"
        }
      ],
      "stateMutability": "view",
      "type": "function",
      "constant": true
    },
    {
      "inputs": [
        {
          "internalType": "uint256",
          "name": "n",
          "type": "uint256"
        },
        {
          "internalType": "uint256",
          "name": "i",
          "type": "uint256"
        }
      ],
      "name": "getPlayerData",
      "outputs": [
        {
          "internalType": "uint256",
          "name": "",
          "type": "uint256"
        },
        {
          "internalType": "string",
          "name": "",
          "type": "string"
        },
        {
          "internalType": "string",
          "name": "",
          "type": "string"
        },
        {
          "internalType": "string",
          "name": "",
          "type": "string"
        },
        {
          "internalType": "uint256",
          "name": "",
          "type": "uint256"
        }
      ],
      "stateMutability": "view",
      "type": "function",
      "constant": true
    },
    {
      "inputs": [
        {
          "internalType": "uint256",
          "name": "i",
          "type": "uint256"
        }
      ],
      "name": "getSubscribedPlayers",
      "outputs": [
        {
          "internalType": "uint256",
          "name": "",
          "type": "uint256"
        }
      ],
      "stateMutability": "view",
      "type": "function",
      "constant": true
    },
    {
      "inputs": [
        {
          "internalType": "uint256",
          "name": "n",
          "type": "uint256"
        },
        {
          "internalType": "uint256",
          "name": "i",
          "type": "uint256"
        }
      ],
      "name": "getPlayerDataLength",
      "outputs": [
        {
          "internalType": "uint256",
          "name": "",
          "type": "uint256"
        },
        {
          "internalType": "uint256",
          "name": "",
          "type": "uint256"
        },
        {
          "internalType": "uint256",
          "name": "",
          "type": "uint256"
        }
      ],
      "stateMutability": "view",
      "type": "function",
      "constant": true
    },
    {
      "inputs": [
        {
          "internalType": "uint256",
          "name": "i",
          "type": "uint256"
        }
      ],
      "name": "getElected",
      "outputs": [
        {
          "internalType": "uint256",
          "name": "",
          "type": "uint256"
        }
      ],
      "stateMutability": "view",
      "type": "function",
      "constant": true
    },
    {
      "inputs": [
        {
          "internalType": "uint256",
          "name": "i",
          "type": "uint256"
        }
      ],
      "name": "getTotalPlayers",
      "outputs": [
        {
          "internalType": "uint256",
          "name": "",
          "type": "uint256"
        }
      ],
      "stateMutability": "view",
      "type": "function",
      "constant": true
    },
    {
      "inputs": [
        {
          "internalType": "uint256",
          "name": "i",
          "type": "uint256"
        }
      ],
      "name": "getInfoFileLocation",
      "outputs": [
        {
          "internalType": "string",
          "name": "",
          "type": "string"
        }
      ],
      "stateMutability": "view",
      "type": "function",
      "constant": true
    },
    {
      "inputs": [
        {
          "internalType": "uint256",
          "name": "i",
          "type": "uint256"
        }
      ],
      "name": "getExecutionFilesLocation",
      "outputs": [
        {
          "internalType": "string",
          "name": "",
          "type": "string"
        },
        {
          "internalType": "string",
          "name": "",
          "type": "string"
        },
        {
          "internalType": "string",
          "name": "",
          "type": "string"
        }
      ],
      "stateMutability": "view",
      "type": "function",
      "constant": true
    },
    {
      "inputs": [
        {
          "internalType": "uint256",
          "name": "i",
          "type": "uint256"
        }
      ],
      "name": "getCA",
      "outputs": [
        {
          "internalType": "string",
          "name": "",
          "type": "string"
        }
      ],
      "stateMutability": "view",
      "type": "function",
      "constant": true
    },
    {
      "inputs": [
        {
          "internalType": "uint256",
          "name": "i",
          "type": "uint256"
        }
      ],
      "name": "getPaymentPrediction",
      "outputs": [
        {
          "internalType": "uint256",
          "name": "",
          "type": "uint256"
        },
        {
          "internalType": "uint256",
          "name": "",
          "type": "uint256"
        }
      ],
      "stateMutability": "view",
      "type": "function",
      "constant": true
    },
    {
      "inputs": [],
      "name": "getReputation",
      "outputs": [
        {
          "internalType": "uint256",
          "name": "",
          "type": "uint256"
        }
      ],
      "stateMutability": "view",
      "type": "function",
      "constant": true
    },
    {
      "inputs": [
        {
          "internalType": "uint256",
          "name": "i",
          "type": "uint256"
        }
      ],
      "name": "getMinimumReputation",
      "outputs": [
        {
          "internalType": "uint256",
          "name": "",
          "type": "uint256"
        }
      ],
      "stateMutability": "view",
      "type": "function",
      "constant": true
    },
    {
      "inputs": [
        {
          "internalType": "uint256",
          "name": "i",
          "type": "uint256"
        }
      ],
      "name": "getMODL",
      "outputs": [
        {
          "internalType": "uint256",
          "name": "",
          "type": "uint256"
        }
      ],
      "stateMutability": "view",
      "type": "function",
      "constant": true
    },
    {
      "inputs": [],
      "name": "getRegistered",
      "outputs": [
        {
          "internalType": "uint256",
          "name": "",
          "type": "uint256"
        }
      ],
      "stateMutability": "view",
      "type": "function",
      "constant": true
    },
    {
      "inputs": [],
      "name": "getBalance",
      "outputs": [
        {
          "internalType": "uint256",
          "name": "",
          "type": "uint256"
        }
      ],
      "stateMutability": "view",
      "type": "function",
      "constant": true
    },
    {
      "inputs": [
        {
          "internalType": "uint256",
          "name": "j",
          "type": "uint256"
        }
      ],
      "name": "repeated",
      "outputs": [
        {
          "internalType": "uint256",
          "name": "",
          "type": "uint256"
        }
      ],
      "stateMutability": "view",
      "type": "function",
      "constant": true
    },
    {
      "inputs": [],
      "name": "register",
      "outputs": [],
      "stateMutability": "nonpayable",
      "type": "function"
    },
    {
      "inputs": [
        {
          "internalType": "string[7]",
          "name": "str_items",
          "type": "string[7]"
        },
        {
          "internalType": "uint256",
          "name": "my_data_length",
          "type": "uint256"
        },
        {
          "internalType": "uint256",
          "name": "_MODL",
          "type": "uint256"
        },
        {
          "internalType": "uint256",
          "name": "min_reputation",
          "type": "uint256"
        },
        {
          "internalType": "uint256",
          "name": "tokens",
          "type": "uint256"
        }
      ],
      "name": "newCampaign",
      "outputs": [],
      "stateMutability": "nonpayable",
      "type": "function"
    },
    {
      "inputs": [
        {
          "internalType": "uint256",
          "name": "my_data_length",
          "type": "uint256"
        },
        {
          "internalType": "string",
          "name": "myIP",
          "type": "string"
        },
        {
          "internalType": "string",
          "name": "myCRT",
          "type": "string"
        },
        {
          "internalType": "string",
          "name": "myCN",
          "type": "string"
        },
        {
          "internalType": "uint256",
          "name": "i",
          "type": "uint256"
        },
        {
          "internalType": "uint256",
          "name": "_reputation",
          "type": "uint256"
        }
      ],
      "name": "subscribe",
      "outputs": [],
      "stateMutability": "nonpayable",
      "type": "function"
    },
    {
      "inputs": [
        {
          "internalType": "uint256[]",
          "name": "elected_players",
          "type": "uint256[]"
        },
        {
          "internalType": "string",
          "name": "BC_hash",
          "type": "string"
        },
        {
          "internalType": "string",
          "name": "SCH_hash",
          "type": "string"
        },
        {
          "internalType": "uint256",
          "name": "i",
          "type": "uint256"
        },
        {
          "internalType": "uint256",
          "name": "n_bins",
          "type": "uint256"
        },
        {
          "internalType": "uint256",
          "name": "current_bin",
          "type": "uint256"
        }
      ],
      "name": "scientistReady",
      "outputs": [],
      "stateMutability": "nonpayable",
      "type": "function"
    },
    {
      "inputs": [
        {
          "internalType": "uint256",
          "name": "i",
          "type": "uint256"
        }
      ],
      "name": "playerReady",
      "outputs": [],
      "stateMutability": "nonpayable",
      "type": "function"
    },
    {
      "inputs": [
        {
          "internalType": "uint256",
          "name": "i",
          "type": "uint256"
        },
        {
          "internalType": "uint256",
          "name": "success",
          "type": "uint256"
        }
      ],
      "name": "finished",
      "outputs": [],
      "stateMutability": "nonpayable",
      "type": "function"
    },
    {
      "inputs": [
        {
          "internalType": "uint256",
          "name": "i",
          "type": "uint256"
        },
        {
          "internalType": "uint256",
          "name": "success",
          "type": "uint256"
        }
      ],
      "name": "payments",
      "outputs": [],
      "stateMutability": "payable",
      "type": "function",
      "payable": true
    },
    {
      "inputs": [
        {
          "internalType": "uint256",
          "name": "i",
          "type": "uint256"
        },
        {
          "internalType": "string[4]",
          "name": "str_items",
          "type": "string[4]"
        },
        {
          "internalType": "uint256",
          "name": "my_data_length",
          "type": "uint256"
        },
        {
          "internalType": "uint256",
          "name": "_MODL",
          "type": "uint256"
        },
        {
          "internalType": "uint256",
          "name": "min_reputation",
          "type": "uint256"
        },
        {
          "internalType": "uint256",
          "name": "tokens",
          "type": "uint256"
        }
      ],
      "name": "updateCampaign",
      "outputs": [],
      "stateMutability": "nonpayable",
      "type": "function"
    }
  ],
  "bytecode": "0x60806040523480156200001157600080fd5b50604051620039923803806200399283398101604081905262000034916200005f565b6000600481905580546001600160a01b0319166001600160a01b03929092169190911790556200008f565b60006020828403121562000071578081fd5b81516001600160a01b038116811462000088578182fd5b9392505050565b6138f3806200009f6000396000f3fe6080604052600436106101815760003560e01c80634eecef2f116100d1578063b17979a61161008a578063efadf32911610064578063efadf3291461046e578063f094f7bc1461048e578063f4a04ae7146104bf578063ffe6a18e146104df57610181565b8063b17979a614610400578063bf5531ce14610420578063e6a3e67f1461044e57610181565b80634eecef2f1461033c578063505269e41461035c5780637a6543e21461037c5780639aed4bd9146103915780639ebbe291146103b1578063a5373f2f146103d157610181565b806325733cfe1161013e578063278e598211610118578063278e5982146102c757806327a41e17146102e757806347799da814610307578063498070d31461031c57610181565b806325733cfe1461026457806325da23fc146102945780632655bd73146102b457610181565b806308105822146101865780630a39c6f8146101bc5780630abef8a2146101eb5780630dc8b0111461021857806312065fe0146102385780631aa3a0081461024d575b600080fd5b34801561019257600080fd5b506101a66101a1366004612c01565b6104f4565b6040516101b39190612ea2565b60405180910390f35b3480156101c857600080fd5b506101dc6101d7366004612c01565b6105dc565b6040516101b393929190612eb5565b3480156101f757600080fd5b5061020b610206366004612c01565b610829565b6040516101b3919061357d565b34801561022457600080fd5b5061020b610233366004612c01565b61088c565b34801561024457600080fd5b5061020b6108a1565b34801561025957600080fd5b50610262610927565b005b34801561027057600080fd5b5061028461027f366004612c01565b610977565b6040516101b39493929190612e49565b3480156102a057600080fd5b5061020b6102af366004612c01565b610bbe565b6102626102c2366004612d8c565b610c54565b3480156102d357600080fd5b506102626102e2366004612c31565b61122a565b3480156102f357600080fd5b5061020b610302366004612c01565b6115e8565b34801561031357600080fd5b5061020b611674565b34801561032857600080fd5b506101a6610337366004612c01565b61167a565b34801561034857600080fd5b50610262610357366004612cda565b611712565b34801561036857600080fd5b50610262610377366004612d8c565b611a32565b34801561038857600080fd5b5061020b611d37565b34801561039d57600080fd5b5061020b6103ac366004612c01565b611d4a565b3480156103bd57600080fd5b506102626103cc366004612b02565b611d5f565b3480156103dd57600080fd5b506103f16103ec366004612d8c565b611f73565b6040516101b3939291906136b9565b34801561040c57600080fd5b5061020b61041b366004612c01565b61205c565b34801561042c57600080fd5b5061044061043b366004612c01565b61207c565b6040516101b39291906136ab565b34801561045a57600080fd5b50610262610469366004612c01565b612099565b34801561047a57600080fd5b506101a6610489366004612c01565b6121b2565b34801561049a57600080fd5b506104ae6104a9366004612d8c565b612217565b6040516101b39594939291906135a7565b3480156104cb57600080fd5b506102626104da366004612a5d565b6124de565b3480156104eb57600080fd5b5061020b612851565b60008181526001602090815260408083208380526012810190925290912054606091906001600160a01b031633146105475760405162461bcd60e51b815260040161053e90612f46565b60405180910390fd5b8060020180546105569061379b565b80601f01602080910402602001604051908101604052809291908181526020018280546105829061379b565b80156105cf5780601f106105a4576101008083540402835291602001916105cf565b820191906000526020600020905b8154815290600101906020018083116105b257829003601f168201915b5050505050915050919050565b6000818152600160205260409020606090819081906003601782015460ff16600581111561061a57634e487b7160e01b600052602160045260246000fd5b146106375760405162461bcd60e51b815260040161053e90613042565b3360009081526011820160205260409020546001146106685760405162461bcd60e51b815260040161053e90612f46565b6013810180546014830190601584019083906106839061379b565b80601f01602080910402602001604051908101604052809291908181526020018280546106af9061379b565b80156106fc5780601f106106d1576101008083540402835291602001916106fc565b820191906000526020600020905b8154815290600101906020018083116106df57829003601f168201915b5050505050925081805461070f9061379b565b80601f016020809104026020016040519081016040528092919081815260200182805461073b9061379b565b80156107885780601f1061075d57610100808354040283529160200191610788565b820191906000526020600020905b81548152906001019060200180831161076b57829003601f168201915b5050505050915080805461079b9061379b565b80601f01602080910402602001604051908101604052809291908181526020018280546107c79061379b565b80156108145780601f106107e957610100808354040283529160200191610814565b820191906000526020600020905b8154815290600101906020018083116107f757829003601f168201915b50505050509050935093509350509193909250565b6000818152600160208190526040822090825b82600401548110156108845760008181526012840160205260409020546001600160a01b03163314156108725760009150610884565b8061087c816137d6565b91505061083c565b509392505050565b60009081526001602052604090206003015490565b600080546040516370a0823160e01b81526001600160a01b03909116906370a08231906108d2903390600401612df8565b60206040518083038186803b1580156108ea57600080fd5b505afa1580156108fe573d6000803e3d6000fd5b505050506040513d601f19601f820116820180604052508101906109229190612c19565b905090565b33600090815260026020526040902054156109545760405162461bcd60e51b815260040161053e9061317c565b336000908152600260209081526040808320600190556003909152902060329055565b6000818152600160208190526040822060609182918491839081908490601785015460ff1660058111156109bb57634e487b7160e01b600052602160045260246000fd5b1415610a33576040518060400160405280601a81526020017f576520617265206174207375627363726962696e672074696d6500000000000081525092506040518060400160405280601381526020017229bab139b1b934b132b210383630bcb2b9399d60691b815250915083600401549050610ba6565b6002601785015460ff166005811115610a5c57634e487b7160e01b600052602160045260246000fd5b1415610ab7576040518060600160405280603981526020016138856039913992506040518060400160405280601381526020017229bab139b1b934b132b210383630bcb2b9399d60691b815250915083600401549050610ba6565b6003601785015460ff166005811115610ae057634e487b7160e01b600052602160045260246000fd5b1415610b455760405180606001604052806036815260200161381e6036913992506040518060400160405280601c81526020017f526561647920706c61796572732061742074686973206d6f6d656e7400000000815250915083600901549050610ba6565b6004601785015460ff166005811115610b6e57634e487b7160e01b600052602160045260246000fd5b1415610ba657604051806060016040528060318152602001613854603191399250604051806020016040528060008152509150600090505b6017939093015460ff16989197509550909350915050565b60008181526001602052604081206002601782015460ff166005811115610bf557634e487b7160e01b600052602160045260246000fd5b14610c125760405162461bcd60e51b815260040161053e9061335a565b60008080526012820160205260409020546001600160a01b03163314610c4a5760405162461bcd60e51b815260040161053e90612f46565b6004015492915050565b60008281526001602081905260409091209082141561103f576000808052601282016020526040902060050154610c8c906002613765565b60008080526012830160209081526040808320546001600160a01b03168352600390915281208054909190610cc290849061372d565b90915550600090505b815481101561103957816011016000836012016000856010018581548110610d0357634e487b7160e01b600052603260045260246000fd5b600091825260208083209091015483528281019390935260409182018120546001600160a01b031684529183019390935291019020546003141561102757600080805260128301602081905260408220546010850180546001600160a01b03909216939185908110610d8557634e487b7160e01b600052603260045260246000fd5b600091825260208083209091015483528201929092526040019020546001600160a01b031614610e7957816012016000836010018381548110610dd857634e487b7160e01b600052603260045260246000fd5b90600052602060002001548152602001908152602001600020600501546002610e019190613765565b60036000846012016000866010018681548110610e2e57634e487b7160e01b600052603260045260246000fd5b600091825260208083209091015483528281019390935260409182018120546001600160a01b0316845291830193909352910181208054909190610e7390849061372d565b90915550505b6000826012016000846010018481548110610ea457634e487b7160e01b600052603260045260246000fd5b90600052602060002001548152602001908152602001600020600401548360060154610ed09190613765565b905060008054906101000a90046001600160a01b03166001600160a01b031663a9059cbb846012016000866010018681548110610f1d57634e487b7160e01b600052603260045260246000fd5b9060005260206000200154815260200190815260200160002060000160009054906101000a90046001600160a01b0316836040518363ffffffff1660e01b8152600401610f6b929190612e30565b602060405180830381600087803b158015610f8557600080fd5b505af1158015610f99573d6000803e3d6000fd5b505050506040513d601f19601f82011682018060405250810190610fbd9190612bda565b506004836011016000856012016000876010018781548110610fef57634e487b7160e01b600052603260045260246000fd5b600091825260208083209091015483528281019390935260409182018120546001600160a01b03168452918301939093529101902055505b80611031816137d6565b915050610ccb565b50611225565b60005b81548110156112235781601101600083601201600085601001858154811061107a57634e487b7160e01b600052603260045260246000fd5b600091825260208083209091015483528281019390935260409182018120546001600160a01b03168452918301939093529101902054600314156112115760008260120160008460100184815481106110e357634e487b7160e01b600052603260045260246000fd5b9060005260206000200154815260200190815260200160002060040154836006015461110f9190613765565b600080548180526012860160205260409182902054915163a9059cbb60e01b81529293506001600160a01b039081169263a9059cbb926111559216908590600401612e30565b602060405180830381600087803b15801561116f57600080fd5b505af1158015611183573d6000803e3d6000fd5b505050506040513d601f19601f820116820180604052508101906111a79190612bda565b5060048360110160008560120160008760100187815481106111d957634e487b7160e01b600052603260045260246000fd5b600091825260208083209091015483528281019390935260409182018120546001600160a01b03168452918301939093529101902055505b8061121b816137d6565b915050611042565b505b505050565b336000908152600360205260409020548211156112595760405162461bcd60e51b815260040161053e90613481565b6000546040516370a0823160e01b815282916001600160a01b0316906370a0823190611289903390600401612df8565b60206040518083038186803b1580156112a157600080fd5b505afa1580156112b5573d6000803e3d6000fd5b505050506040513d601f19601f820116820180604052508101906112d99190612c19565b10156112f75760405162461bcd60e51b815260040161053e90612f95565b6004548611156113195760405162461bcd60e51b815260040161053e90613259565b60008681526001602052604090206005601782015460ff16600581111561135057634e487b7160e01b600052602160045260246000fd5b1461136d5760405162461bcd60e51b815260040161053e90612fe5565b60005b81600401548110156113b75760008181526012830160209081526040808320546001600160a01b0316835260118501909152812055806113af816137d6565b915050611370565b50855180516113d0916001840191602090910190612864565b5060038082018490553360009081526020919091526040812080548592906113f9908490613784565b909155505060178101805460ff19166001908117909155600060098301819055600a8301819055600d8301819055600b8301819055600c8301819055600483018290556007830186905560058301849055600883018790556040805160c08101825233815260208a8101518183019081528b840151838501526060808d015190840152608083018b905260a0830189905284805260128701825292909320815181546001600160a01b0319166001600160a01b0390911617815591518051919492936114ca93850192910190612864565b50604082015180516114e6916002840191602090910190612864565b5060608201518051611502916003840191602090910190612864565b50608082015160048083019190915560a0909201516005909101556000546040516323b872dd60e01b81526001600160a01b03909116916323b872dd9161154f9133913091889101612e0c565b602060405180830381600087803b15801561156957600080fd5b505af115801561157d573d6000803e3d6000fd5b505050506040513d601f19601f820116820180604052508101906115a19190612bda565b506040517f70093f560ba190ea49c0843e4141804f3b9094c864bf66e3057364acc72fa495906115d790899060168501906135f9565b60405180910390a150505050505050565b60008181526001602052604081206003601782015460ff16600581111561161f57634e487b7160e01b600052602160045260246000fd5b1461163c5760405162461bcd60e51b815260040161053e90613308565b33600090815260118201602052604090205460011461166d5760405162461bcd60e51b815260040161053e90612f46565b5492915050565b60045481565b6000818152600160208190526040909120606091601782015460ff1660058111156116b557634e487b7160e01b600052602160045260246000fd5b14806116e757506003601782015460ff1660058111156116e557634e487b7160e01b600052602160045260246000fd5b145b6117035760405162461bcd60e51b815260040161053e90613308565b8060010180546105569061379b565b336000908152600360205260409020548111156117415760405162461bcd60e51b815260040161053e906132b6565b600082815260016020819052604090912090601782015460ff16600581111561177a57634e487b7160e01b600052602160045260246000fd5b146117975760405162461bcd60e51b815260040161053e9061311f565b6117a083610829565b6001146117bf5760405162461bcd60e51b815260040161053e90612ef8565b80600301548210156117e35760405162461bcd60e51b815260040161053e90613520565b80600701548a106118065760405162461bcd60e51b815260040161053e90613435565b3360009081526003602052604081208054849290611825908490613784565b925050819055506040518060c00160405280336001600160a01b031681526020018a8a8080601f016020809104026020016040519081016040528093929190818152602001838380828437600092019190915250505090825250604080516020601f8b0181900481028201810190925289815291810191908a908a9081908401838280828437600092019190915250505090825250604080516020601f890181900481028201810190925287815291810191908890889081908401838280828437600092018290525093855250505060208083018e9052604092830186905260048501548252601285018152919020825181546001600160a01b0319166001600160a01b03909116178155828201518051919261194a92600185019290910190612864565b5060408201518051611966916002840191602090910190612864565b5060608201518051611982916003840191602090910190612864565b506080820151816004015560a0820151816005015590505060018160040160008282546119af919061372d565b92505081905550898160080160008282546119ca919061372d565b90915550506007810154600882015410611a265760178101805460ff191660021790556040517f8b3de06c5f0714ec9140e012ecc0a44a9ff3456be04f9f84909d0289bd6a6a4b90611a1d90859061357d565b60405180910390a15b50505050505050505050565b60008281526001602052604090206004601782015460ff166005811115611a6957634e487b7160e01b600052602160045260246000fd5b14611a865760405162461bcd60e51b815260040161053e9061311f565b336000908152601182016020526040902054600214611ab75760405162461bcd60e51b815260040161053e906134d4565b60008080526012820160205260409020546001600160a01b0316331415611ae057600c81018290555b336000908152601182016020526040812060039055600a8201805460019290611b0a90849061372d565b909155505081611b3457600181600d016000828254611b29919061372d565b90915550611b4f9050565b600181600b016000828254611b49919061372d565b90915550505b8054600a8201541415611225577fbe8afa0cd58f1f21ce742175e820831add6dd587bd54e2057de1f8df380b62438382600f0154604051611b919291906136ab565b60405180910390a16000600a820155600d810154600b8201541115611bfd57611bbb836001610c54565b7f84b505dbb7d4f8932af64f0c7fe87d58847a41596bce1799ee17e8d12e1cf94e8382600f0154604051611bf09291906136ab565b60405180910390a1611cf5565b80600d015481600b01541415611cac5780600c015460011415611c6757611c25836001610c54565b7f84b505dbb7d4f8932af64f0c7fe87d58847a41596bce1799ee17e8d12e1cf94e8382600f0154604051611c5a9291906136ab565b60405180910390a1611ca7565b611c72836000610c54565b7fa7e58d97245618ccc8572ce6690536c560df0be8f68344c66830ac611b23f9348382600f0154604051611bf09291906136ab565b611cf5565b611cb7836000610c54565b7fa7e58d97245618ccc8572ce6690536c560df0be8f68344c66830ac611b23f9348382600f0154604051611cec9291906136ab565b60405180910390a15b600181600e0154611d069190613784565b81600f01541415611d255760178101805460ff19166005179055611225565b601701805460ff191660021790555050565b3360009081526002602052604090205490565b60009081526001602052604090206007015490565b60008381526001602052604090206002601782015460ff166005811115611d9657634e487b7160e01b600052602160045260246000fd5b14611db35760405162461bcd60e51b815260040161053e906130d2565b60008080526012820160205260409020546001600160a01b03163314611deb5760405162461bcd60e51b815260040161053e906133e1565b60178101805460ff1916600317905560088101546005820154611e0e9190613745565b600682015581611e50576000808052601282016020526040902060050154611e37908490613745565b6000808052601283016020526040902060050155611e65565b60008080526012820160205260408120600401555b888155611e76601082018b8b6128e8565b50600e8101839055600f810182905560005b8154811015611f0a576001826011016000846012016000866010018681548110611ec257634e487b7160e01b600052603260045260246000fd5b600091825260208083209091015483528281019390935260409182018120546001600160a01b0316845291830193909352910190205580611f02816137d6565b915050611e88565b50336000908152601182016020526040902060019055611f2e601382018989612923565b50611f3d601482018787612923565b507fed8f38a64cd37a804525e8b23bd4b3d5dab24ef5fed1e37a4826d232276d3c7f8482600f0154604051611a1d9291906136ab565b600081815260016020908152604080832083805260128101909252822054829182916001600160a01b03163314611fbc5760405162461bcd60e51b815260040161053e906133aa565b6002601782015460ff166005811115611fe557634e487b7160e01b600052602160045260246000fd5b148061201757506005601782015460ff16600581111561201557634e487b7160e01b600052602160045260246000fd5b145b6120335760405162461bcd60e51b815260040161053e9061335a565b600086815260129190910160205260409020600481015460059091015495969095945092505050565b600090815260016020908152604080832033845260110190915290205490565b600090815260016020526040902060058101546007909101549091565b60008181526001602052604090206003601782015460ff1660058111156120d057634e487b7160e01b600052602160045260246000fd5b146120ed5760405162461bcd60e51b815260040161053e906130d2565b33600090815260118201602052604090205460011461211e5760405162461bcd60e51b815260040161053e90613089565b3360009081526011820160205260408120600290556009820180546001929061214890849061372d565b90915550508054600982015414156121ae577f4cfb38fffb89ea9a89cfe46deb2d150aa01eba912667cf69010e0b0ec429ed018282600f015460405161218f9291906136ab565b60405180910390a16000600982015560178101805460ff191660041790555b5050565b6000818152600160205260408120606091601782015460ff1660058111156121ea57634e487b7160e01b600052602160045260246000fd5b14156122085760405162461bcd60e51b815260040161053e906131c6565b6016810180546105569061379b565b60008181526001602052604081206060908190819084906003601782015460ff16600581111561225757634e487b7160e01b600052602160045260246000fd5b146122745760405162461bcd60e51b815260040161053e9061335a565b3360009081526011820160205260409020546001146122a55760405162461bcd60e51b815260040161053e90612f46565b60008160100189815481106122ca57634e487b7160e01b600052603260045260246000fd5b6000918252602080832091909101548083526012850190915260408220549092506001600160a01b03163314156122ff575060015b60008281526012840160205260409020600181018054849260028101916003909101908590849061232f9061379b565b80601f016020809104026020016040519081016040528092919081815260200182805461235b9061379b565b80156123a85780601f1061237d576101008083540402835291602001916123a8565b820191906000526020600020905b81548152906001019060200180831161238b57829003601f168201915b505050505093508280546123bb9061379b565b80601f01602080910402602001604051908101604052809291908181526020018280546123e79061379b565b80156124345780601f1061240957610100808354040283529160200191612434565b820191906000526020600020905b81548152906001019060200180831161241757829003601f168201915b505050505092508180546124479061379b565b80601f01602080910402602001604051908101604052809291908181526020018280546124739061379b565b80156124c05780601f10612495576101008083540402835291602001916124c0565b820191906000526020600020905b8154815290600101906020018083116124a357829003601f168201915b50505050509150975097509750975097505050509295509295909350565b3360009081526003602052604090205482111561250d5760405162461bcd60e51b815260040161053e90613481565b6000546040516370a0823160e01b815282916001600160a01b0316906370a082319061253d903390600401612df8565b60206040518083038186803b15801561255557600080fd5b505afa158015612569573d6000803e3d6000fd5b505050506040513d601f19601f8201168201806040525081019061258d9190612c19565b10156125ab5760405162461bcd60e51b815260040161053e90612f95565b6004546125b990600161372d565b600481905560009081526001602081815260409092208751805191936125e493850192910190612864565b50600380820184905533600090815260209190915260408120805485929061260d908490613784565b909155505060178101805460ff19166001908117909155600482018190556007820185905560058201839055600882018690556040805160c0810182523381526020898101518183019081528a840151838501526060808c015190840152608083018a905260a08301889052600080805260128701835293909320825181546001600160a01b0319166001600160a01b039091161781559251805192946126bc93908501929190910190612864565b50604082015180516126d8916002840191602090910190612864565b50606082015180516126f4916003840191602090910190612864565b506080820151816004015560a082015181600501559050508560046007811061272d57634e487b7160e01b600052603260045260246000fd5b6020908102919091015180516127499260158501920190612864565b5060a08601518051612765916016840191602090910190612864565b5060c08601518051612781916002840191602090910190612864565b506000546040516323b872dd60e01b81526001600160a01b03909116906323b872dd906127b690339030908790600401612e0c565b602060405180830381600087803b1580156127d057600080fd5b505af11580156127e4573d6000803e3d6000fd5b505050506040513d601f19601f820116820180604052508101906128089190612bda565b5060045460a08701516040517f3f11a6b69e2dd0c7f06c2d19fc912d73bc76e130cfb22ce3e5b3c26f582c28c792612841929091613586565b60405180910390a1505050505050565b3360009081526003602052604090205490565b8280546128709061379b565b90600052602060002090601f01602090048101928261289257600085556128d8565b82601f106128ab57805160ff19168380011785556128d8565b828001600101855582156128d8579182015b828111156128d85782518255916020019190600101906128bd565b506128e4929150612996565b5090565b8280548282559060005260206000209081019282156128d8579160200282015b828111156128d8578235825591602001919060010190612908565b82805461292f9061379b565b90600052602060002090601f01602090048101928261295157600085556128d8565b82601f1061296a5782800160ff198235161785556128d8565b828001600101855582156128d857918201828111156128d8578235825591602001919060010190612908565b5b808211156128e45760008155600101612997565b60008083601f8401126129bc578182fd5b50813567ffffffffffffffff8111156129d3578182fd5b6020830191508360208285010111156129eb57600080fd5b9250929050565b600082601f830112612a02578081fd5b813567ffffffffffffffff811115612a1c57612a1c613807565b612a2f601f8201601f19166020016136cf565b818152846020838601011115612a43578283fd5b816020850160208301379081016020019190915292915050565b600080600080600060a08688031215612a74578081fd5b853567ffffffffffffffff811115612a8a578182fd5b8601601f81018813612a9a578182fd5b6007612aad612aa882613700565b6136cf565b8083855b84811015612adb57612ac68d833588016129f2565b84526020938401939190910190600101612ab1565b50909b60208b01359b5060408b01359a60608101359a506080013598509650505050505050565b600080600080600080600080600060c08a8c031215612b1f578384fd5b893567ffffffffffffffff80821115612b36578586fd5b818c0191508c601f830112612b49578586fd5b813581811115612b57578687fd5b8d60208083028501011115612b6a578687fd5b60209283019b509950908b01359080821115612b84578586fd5b612b908d838e016129ab565b909950975060408c0135915080821115612ba8578586fd5b50612bb58c828d016129ab565b9a9d999c50979a969997986060880135976080810135975060a0013595509350505050565b600060208284031215612beb578081fd5b81518015158114612bfa578182fd5b9392505050565b600060208284031215612c12578081fd5b5035919050565b600060208284031215612c2a578081fd5b5051919050565b60008060008060008060c08789031215612c49578182fd5b8635955060208088013567ffffffffffffffff811115612c67578384fd5b8801601f81018a13612c77578384fd5b6004612c85612aa882613700565b8083875b84811015612cb057612c9e8f833588016129f2565b84529286019290860190600101612c89565b509a9d909c5060408c01359b60608101359b5060808101359a5060a0013598509650505050505050565b600080600080600080600080600060c08a8c031215612cf7578485fd5b8935985060208a013567ffffffffffffffff80821115612d15578687fd5b612d218d838e016129ab565b909a50985060408c0135915080821115612d39578687fd5b612d458d838e016129ab565b909850965060608c0135915080821115612d5d578586fd5b50612d6a8c828d016129ab565b9a9d999c50979a96999598959660808101359660a09091013595509350505050565b60008060408385031215612d9e578182fd5b50508035926020909101359150565b60008151808452815b81811015612dd257602081850181015186830182015201612db6565b81811115612de35782602083870101525b50601f01601f19169290920160200192915050565b6001600160a01b0391909116815260200190565b6001600160a01b039384168152919092166020820152604081019190915260600190565b6001600160a01b03929092168252602082015260400190565b600060068610612e6757634e487b7160e01b81526021600452602481fd5b85825260806020830152612e7e6080830186612dad565b8281036040840152612e908186612dad565b91505082606083015295945050505050565b600060208252612bfa6020830184612dad565b600060608252612ec86060830186612dad565b8281036020840152612eda8186612dad565b90508281036040840152612eee8185612dad565b9695505050505050565b6020808252602e908201527f596f7520616c72656164792068617665207369676e656420757020666f72207460408201526d3434b99037b832b930ba34b7b71760911b606082015260800190565b6020808252602f908201527f596f7520617265206e6f7420616c6c6f77656420746f206f627461696e20746860408201526e34b99034b73337b936b0ba34b7b71760891b606082015260800190565b60208082526030908201527f596f752070726f6d69736564206d6f726520746f6b656e73207468616e20746860408201526f329037b732b9903cb7ba903430bb329760811b606082015260800190565b60208082526038908201527f546869732070726f6772616d20686173206e6f742066696e697368656420796560408201527f742e20596f752063616e6e6f74207570646174652069742e0000000000000000606082015260800190565b60208082526027908201527f596f752063616e6e6f74206f627461696e207468697320696e666f726d61746960408201526637b7103cb2ba1760c91b606082015260800190565b60208082526029908201527f596f7520617265206e6f7420616c6c6f77656420746f2074656c6c20796f75276040820152683932903932b0b23c9760b91b606082015260800190565b6020808252602d908201527f596f752063616e6e6f742063616c6c20746869732066756e6374696f6e20617460408201526c103a3434b99036b7b6b2b73a1760991b606082015260800190565b6020808252603d908201527f54686520636f6e74726163742063616e6e6f742070726f636365737320796f7560408201527f7220636c61696d20696e206974732063757272656e742073746174652e000000606082015260800190565b6020808252602a908201527f596f7520616c7265616479207265676973746572656420696e20746865206d616040820152693935b2ba383630b1b29760b11b606082015260800190565b60208082526067908201527f5468652066696c6520796f752061726520736561726368696e6720666f72206960408201527f73206e6f742075706c6f61646564207965742e20496620796f752077616e742c60608201527f20796f752063616e207468726f7720616e206f7065726174696f6e20746f206360808201526637b6b83aba329760c91b60a082015260c00190565b60208082526037908201527f5468657265206973206e6f2070726576696f7573206f7065726174696f6e207460408201527f6f20757064617465206174207468697320696e6465782e000000000000000000606082015260800190565b60208082526032908201527f596f752067616d626c6564206d6f72652072657075746174696f6e207468616e604082015271103a34329037b732903cb7ba903430bb329760711b606082015260800190565b60208082526032908201527f596f752063616e6e6f74206f627461696e207468697320696e666f726d61746960408201527137b71030ba103a3434b99036b7b6b2b73a1760711b606082015260800190565b60208082526030908201527f596f752063616e6e6f74206578656375746520746869732066756e6374696f6e60408201526f1030ba103a3434b99036b7b6b2b73a1760811b606082015260800190565b6020808252601e908201527f596f752063616e6e6f742063616c6c20746869732066756e6374696f6e2e0000604082015260600190565b60208082526034908201527f596f7520617265206e6f742077686f206d616465207468652072657175657374604082015273103337b9103a3434b99037b832b930ba34b7b71760611b606082015260800190565b6020808252602c908201527f596f75722064617461206c656e677468206d757374206265206c65737320746860408201526b30b7103a34329026a7a2261760a11b606082015260800190565b60208082526033908201527f596f75207265717569726564206d6f72652072657075746174696f6e2074686160408201527237103a34329037b732903cb7ba903430bb329760691b606082015260800190565b6020808252602c908201527f596f7520617265206e6f7420616c6c6f77656420746f2074656c6c20796f752760408201526b3b32903334b734b9b432b21760a11b606082015260800190565b6020808252603a908201527f596f75722072657075746174696f6e206973206e6f7420656e6f75676820746f60408201527f20706172746963697061746520696e207468697320534d50432e000000000000606082015260800190565b90815260200190565b60008382526040602083015261359f6040830184612dad565b949350505050565b600086825260a060208301526135c060a0830187612dad565b82810360408401526135d28187612dad565b905082810360608401526135e68186612dad565b9150508260808301529695505050505050565b600083825260206040818401528184548360028204905060018083168061362157607f831692505b85831081141561363f57634e487b7160e01b87526022600452602487fd5b61364c8360408a0161357d565b81801561366057600181146136715761369b565b60ff1986168252878201965061369b565b61367a8b613721565b895b868110156136955781548482015290850190890161367c565b83019750505b50949a9950505050505050505050565b918252602082015260400190565b9283526020830191909152604082015260600190565b604051601f8201601f1916810167ffffffffffffffff811182821017156136f8576136f8613807565b604052919050565b600067ffffffffffffffff82111561371a5761371a613807565b5060200290565b60009081526020902090565b60008219821115613740576137406137f1565b500190565b60008261376057634e487b7160e01b81526012600452602481fd5b500490565b600081600019048311821515161561377f5761377f6137f1565b500290565b600082821015613796576137966137f1565b500390565b6002810460018216806137af57607f821691505b602082108114156137d057634e487b7160e01b600052602260045260246000fd5b50919050565b60006000198214156137ea576137ea6137f1565b5060010190565b634e487b7160e01b600052601160045260246000fd5b634e487b7160e01b600052604160045260246000fdfe5765206172652077616974696e6720666f7220616c6c20706c617965727320746f2074656c6c2074686579206172652072656164792e546865206e6574776f726b20697320726561647920746f2073746172742074686520534d504320657865637574696f6e2e5765206172652077616974696e6720666f7220746865206461746120736369656e7469737420746f2075706c6f616420746865206d6f64656ca2646970667358221220137ca0c0308375ae5bbdf6302e77a442500fcf41de2b527e62b29b6a61b3e78764736f6c63430008010033",
  "immutableReferences": {},
  "source": "// SPDX-License-Identifier: UNLICENSED\n\npragma solidity ^0.8.0;\n\n\nimport \"./token/Token.sol\";\n\ncontract marketplace {\n\n    /* -------------------------------------- OTHER CONTRACT IMPORTATION -------------------------------------- */\n\n\n    Token private token;\n                                                                                                                                         \n                                                        \n    // ------------------------------------------------------------CONSTRUCTOR------------------------------------------------------------\n\n\n    constructor(address tokenaddress) {\n        last = 0;\n        token = Token(tokenaddress);\n    }\n\n    // ------------------------------------------------------------STRUCTS------------------------------------------------------------\n\n\n    struct CampaignData {\n        uint n_players;    \n        string CA;\n        string mpcPath;\n        uint reputation;\n        uint subscribed_players;\n        uint payment;\n        uint tokensPerItem;\n        uint MODL;\n        uint current_data;\n        uint ready_players;\n        uint finished_players;\n        uint succeeded;\n        uint scientist_vote;\n        uint aborted;\n        uint nBins;\n        uint binIndex;\n        uint[] elected_list;\n        mapping (address => uint) elected;\n        mapping (uint => PlayerData) Players;\n        FilesLoc Files;\n        StateType CampaignState;\n    }\n\n    struct PlayerData {\n        address account;\n        string IP;\n        string CRT;\n        string CN;\n        uint data_length;\n        uint reputation;\n    }\n\n    struct FilesLoc {\n        string BC;\n        string SCH;\n        string PREP;\n        string INFO;\n    }\n\n\n    // ------------------------------------------------------------EVENTS------------------------------------------------------------\n\n\n    event new_campaign(\n        uint i,\n        string info\n    );\n\n    event updated_campaign(\n        uint i,\n        string info\n    );\n\n    event scientist_ready(\n        uint i,\n        uint bin\n    );\n\n    event execution_finished(\n        uint i,\n        uint bin\n    );\n    \n    event players_filled(\n        uint i\n    );\n\n    event execution_ready(\n        uint i,\n        uint bin\n    );\n\n    event execution_successful(\n        uint i,\n        uint bin\n    );\n\n    event execution_failed(\n        uint i,\n        uint bin\n    );\n\n    // -------------------------------------------------------OTHER VARIABLES-------------------------------------------------------\n\n\n    mapping (uint => CampaignData) Prog;\n    mapping (address => uint) registered;\n    mapping (address => uint) reputations;\n\n    uint public last;\n\n    enum StateType {Previous, SubscribingTime, ModelUpload, ScientistReady, ExecutionReady, Finished}      \n    \n\n    // ------------------------------------------------------- CALLDATA FUNCTIONS -------------------------------------------------------\n\n\n    function getCampaignState(uint i) external view returns (StateType, string memory, string memory, uint) {\n        CampaignData storage NewProg = Prog[i];\n        string memory text1;\n        string memory text2;\n        uint number;\n        if (NewProg.CampaignState == StateType.SubscribingTime) {\n            text1 = \"We are at subscribing time\";\n            text2 = \"Subscribed players:\";\n            number = NewProg.subscribed_players;\n        }\n        else if (NewProg.CampaignState == StateType.ModelUpload) {\n            text1 = \"We are waiting for the data scientist to upload the model\";\n            text2 = \"Subscribed players:\";\n            number = NewProg.subscribed_players;\n        }\n        else if (NewProg.CampaignState == StateType.ScientistReady) {\n            text1 = \"We are waiting for all players to tell they are ready.\";\n            text2 = \"Ready players at this moment\";\n            number = NewProg.ready_players;\n        }\n        else if (NewProg.CampaignState == StateType.ExecutionReady) {\n            text1 = \"The network is ready to start the SMPC execution.\";\n            text2 = \"\";\n            number = 0;\n        }\n        return (NewProg.CampaignState, text1, text2, number);\n    }\n\n    function getMPCPath(uint i) external view returns (string memory) {\n        CampaignData storage NewProg = Prog[i];\n        require(msg.sender == NewProg.Players[0].account, 'You are not allowed to obtain this information.');\n        return NewProg.mpcPath;\n    }\n    \n    function getPlayerData(uint n, uint i) external view returns (uint, string memory, string memory, string memory, uint) {\n        CampaignData storage NewProg = Prog[i];\n        require (NewProg.CampaignState == StateType.ScientistReady, \"You cannot execute this function at this moment.\");\n        require(NewProg.elected[msg.sender] == 1, \"You are not allowed to obtain this information.\");\n        uint index = NewProg.elected_list[n];\n        uint my_n = 0;\n        if (msg.sender == NewProg.Players[index].account) {\n            my_n = 1;\n        }\n        return (index, NewProg.Players[index].IP, NewProg.Players[index].CRT, NewProg.Players[index].CN, my_n);\n    }\n    \n    function getSubscribedPlayers(uint i) external view returns (uint) {\n        CampaignData storage NewProg = Prog[i];\n        require(NewProg.CampaignState == StateType.ModelUpload, \"You cannot execute this function at this moment.\");\n        require(msg.sender == NewProg.Players[0].account, \"You are not allowed to obtain this information.\");\n        return NewProg.subscribed_players;\n    }\n\n    function getPlayerDataLength(uint n, uint i) external view returns (uint, uint, uint) {\n        CampaignData storage NewProg = Prog[i];\n        require(msg.sender == NewProg.Players[0].account, \"You cannot call this function.\");\n        require (NewProg.CampaignState == StateType.ModelUpload || NewProg.CampaignState == StateType.Finished, \"You cannot execute this function at this moment.\");\n        return (n, NewProg.Players[n].data_length, NewProg.Players[n].reputation);\n    }\n\n    function getElected(uint i) external view returns (uint) {\n        CampaignData storage NewProg = Prog[i];\n        return NewProg.elected[msg.sender];\n    }\n\n    function getTotalPlayers(uint i) external view returns (uint) {\n        CampaignData storage NewProg = Prog[i];\n        require(NewProg.CampaignState == StateType.ScientistReady, \"You cannot obtain this information at this moment.\");\n        require(NewProg.elected[msg.sender] == 1, \"You are not allowed to obtain this information.\");\n        return NewProg.n_players;\n    }\n\n    function getInfoFileLocation(uint i) external view returns (string memory) {\n        CampaignData storage NewProg = Prog[i];\n        require (NewProg.CampaignState != StateType.Previous, \"The file you are searching for is not uploaded yet. If you want, you can throw an operation to compute.\");\n        return NewProg.Files.INFO;\n    }\n\n    function getExecutionFilesLocation(uint i) external view returns (string memory, string memory, string memory) {\n        CampaignData storage NewProg = Prog[i];\n        require (NewProg.CampaignState == StateType.ScientistReady, \"You cannot obtain this information yet.\");\n        require(NewProg.elected[msg.sender] == 1, \"You are not allowed to obtain this information.\");\n        return (NewProg.Files.BC, NewProg.Files.SCH, NewProg.Files.PREP);\n    }\n\n    function getCA(uint i) external view returns (string memory) {\n        CampaignData storage NewProg = Prog[i];\n        require(NewProg.CampaignState == StateType.SubscribingTime || NewProg.CampaignState == StateType.ScientistReady, \"You cannot obtain this information at this moment.\");\n        return NewProg.CA;\n    }\n\n    function getPaymentPrediction(uint i) external view returns (uint, uint) {\n        CampaignData storage NewProg = Prog[i];\n        return (NewProg.payment, NewProg.MODL);\n    }\n\n    function getReputation() external view returns (uint) {\n        return reputations[msg.sender];\n    }\n\n    function getMinimumReputation(uint i) external view returns (uint) {\n        CampaignData storage NewProg = Prog[i];\n        return NewProg.reputation;\n    }\n\n    function getMODL(uint i) external view returns (uint) {\n        CampaignData storage NewProg = Prog[i];\n        return NewProg.MODL;\n    }\n\n    function getRegistered() external view returns (uint) {\n        return registered[msg.sender];\n    }\n\n    function getBalance() external view returns (uint) {\n        return token.balanceOf(msg.sender);\n    }\n\n\n    // -------------------------------------------------------AUXILIARY FUNCTIONS-------------------------------------------------------\n    \n\n    function repeated(uint j) public view returns (uint) {\n        CampaignData storage NewProg = Prog[j];\n        uint result = 1;\n        for (uint i = 0; i < NewProg.subscribed_players; i++) {\n            if (NewProg.Players[i].account == msg.sender) {\n                result = 0;\n                break;\n            }\n        }\n        return result;\n    }\n\n    // function withdraw(uint amount) external payable {\n    //     token.transfer(msg.sender, amount);\n    // }\n\n    // ------------------------------------------------------- MAIN FUNCTIONS -------------------------------------------------------\n\n    \n    function register() external {\n        require(registered[msg.sender] == 0, \"You already registered in the marketplace.\");\n        registered[msg.sender] = 1;\n        reputations[msg.sender] = 50;\n    }\n\n    function newCampaign(string[7] memory str_items, uint my_data_length, uint _MODL, uint min_reputation, uint tokens) external {\n        // str_items = [CA, IP, CRT, CN, PREPROCESSING, INFORMATION, mpcPath]\n        require(reputations[msg.sender] >= min_reputation, \"You required more reputation than the one you have.\");\n        require(token.balanceOf(msg.sender) >= tokens, \"You promised more tokens than the ones you have.\");\n        last = last + 1;\n        CampaignData storage NewProg = Prog[last];\n        NewProg.CA = str_items[0];\n        NewProg.reputation = min_reputation;\n        reputations[msg.sender] -= min_reputation;\n        NewProg.CampaignState = StateType.SubscribingTime;\n        NewProg.subscribed_players = 1;\n        NewProg.MODL = _MODL;\n        NewProg.payment = tokens;\n        NewProg.current_data = my_data_length;\n        NewProg.Players[0] = PlayerData(\n            {\n                account: msg.sender,\n                IP: str_items[1],\n                CRT: str_items[2],\n                CN: str_items[3],\n                data_length: my_data_length,\n                reputation: min_reputation\n            }\n        );\n        NewProg.Files.PREP = str_items[4];\n        NewProg.Files.INFO = str_items[5];\n        NewProg.mpcPath = str_items[6];\n        // Before calling this function we need to call the approve(tokenaddress, amount) from Token.sol\n        token.transferFrom(msg.sender, address(this), tokens);\n        emit new_campaign(last, str_items[5]);\n    }\n\n    function subscribe(uint my_data_length, string calldata myIP, string calldata myCRT, string calldata myCN, uint i, uint _reputation) external {\n        require(reputations[msg.sender] >= _reputation, \"You gambled more reputation than the one you have.\");\n        CampaignData storage NewProg = Prog[i];\n        require (NewProg.CampaignState == StateType.SubscribingTime, \"The contract cannot proccess your claim in its current state.\");\n        require (repeated(i) == 1, \"You already have signed up for this operation.\");\n        require (_reputation >= NewProg.reputation, \"Your reputation is not enough to participate in this SMPC.\");\n        require (my_data_length < NewProg.MODL, \"Your data length must be less than the MODL.\");\n        reputations[msg.sender] -= _reputation;\n        NewProg.Players[NewProg.subscribed_players] = PlayerData(\n            {\n                account: msg.sender,\n                IP: myIP,\n                CRT: myCRT,\n                CN: myCN,\n                data_length: my_data_length,\n                reputation: _reputation\n            }\n        );\n        NewProg.subscribed_players += 1;\n        NewProg.current_data += my_data_length;\n        if (NewProg.current_data >= NewProg.MODL) {\n            NewProg.CampaignState = StateType.ModelUpload;\n            emit players_filled(i);\n        }\n    }\n\n    function scientistReady(uint[] calldata elected_players, string calldata BC_hash, string calldata SCH_hash, uint i, uint n_bins, uint current_bin) external {\n        CampaignData storage NewProg = Prog[i];\n        require(NewProg.CampaignState == StateType.ModelUpload, \"You cannot call this function at this moment.\");\n        require(msg.sender == NewProg.Players[0].account, \"You are not who made the request for this operation.\");\n        NewProg.CampaignState = StateType.ScientistReady;\n        NewProg.tokensPerItem = NewProg.payment / NewProg.current_data;\n        if (current_bin == 0) {\n            NewProg.Players[0].reputation = NewProg.Players[0].reputation / n_bins;\n        } else {\n            NewProg.Players[0].data_length = 0;\n        }\n        NewProg.n_players = elected_players.length;\n        NewProg.elected_list = elected_players;\n        NewProg.nBins = n_bins;\n        NewProg.binIndex = current_bin;\n        for (uint j = 0; j < NewProg.n_players; j++) {\n            NewProg.elected[NewProg.Players[NewProg.elected_list[j]].account] = 1;\n        }\n        NewProg.elected[msg.sender] = 1;\n        NewProg.Files.BC = BC_hash;\n        NewProg.Files.SCH = SCH_hash;\n        emit scientist_ready(i, NewProg.binIndex);\n    }\n\n    function playerReady(uint i) external {\n        CampaignData storage NewProg = Prog[i];\n        require(NewProg.CampaignState == StateType.ScientistReady, \"You cannot call this function at this moment.\");\n        require(NewProg.elected[msg.sender] == 1, \"You are not allowed to tell you're ready.\");\n        NewProg.elected[msg.sender] = 2;\n        NewProg.ready_players += 1;\n        if (NewProg.ready_players == NewProg.n_players) {\n            emit execution_ready(i, NewProg.binIndex);\n            NewProg.ready_players = 0;\n            NewProg.CampaignState = StateType.ExecutionReady;\n        }\n    }\n\n    function finished(uint i, uint success) external {\n        CampaignData storage NewProg = Prog[i];\n        require(NewProg.CampaignState == StateType.ExecutionReady, \"The contract cannot proccess your claim in its current state.\");\n        require(NewProg.elected[msg.sender] == 2, \"You are not allowed to tell you've finished.\");\n        if (msg.sender == NewProg.Players[0].account) {\n            NewProg.scientist_vote = success;\n        }\n        NewProg.elected[msg.sender] = 3;\n        NewProg.finished_players += 1;\n        if (success == 0) {\n            NewProg.aborted += 1;\n        } else {\n            NewProg.succeeded += 1;\n        }\n        if (NewProg.finished_players == NewProg.n_players) {\n            emit execution_finished(i, NewProg.binIndex);\n            NewProg.finished_players = 0;\n            if (NewProg.succeeded > NewProg.aborted) {\n                payments(i, 1);\n                emit execution_successful(i, NewProg.binIndex);\n            } else if (NewProg.succeeded == NewProg.aborted) {\n                if (NewProg.scientist_vote == 1) {\n                    payments(i, 1);\n                    emit execution_successful(i, NewProg.binIndex);\n                } else {\n                    payments(i, 0);\n                    emit execution_failed(i, NewProg.binIndex);\n                }\n            } else {\n                payments(i, 0);\n                emit execution_failed(i, NewProg.binIndex);\n            }\n            if (NewProg.binIndex == NewProg.nBins - 1) {\n                NewProg.CampaignState = StateType.Finished;\n            } else {\n                NewProg.CampaignState = StateType.ModelUpload;\n            }\n        }\n    }\n\n    function payments(uint i, uint success) public payable {\n        CampaignData storage NewProg = Prog[i];\n        if (success == 1) {\n            reputations[NewProg.Players[0].account] += 2 * NewProg.Players[0].reputation;\n            for (uint j = 0; j < NewProg.n_players; j++) {\n                if (NewProg.elected[NewProg.Players[NewProg.elected_list[j]].account] == 3) {\n                    if (NewProg.Players[NewProg.elected_list[j]].account != NewProg.Players[0].account) {\n                        reputations[NewProg.Players[NewProg.elected_list[j]].account] += 2 * NewProg.Players[NewProg.elected_list[j]].reputation;\n                    }\n                    uint amount = NewProg.tokensPerItem * NewProg.Players[NewProg.elected_list[j]].data_length;\n                    token.transfer(NewProg.Players[NewProg.elected_list[j]].account, amount);\n                    NewProg.elected[NewProg.Players[NewProg.elected_list[j]].account] = 4;\n                }\n            }\n        } else {\n            for (uint k = 0; k < NewProg.n_players; k++) {\n                if (NewProg.elected[NewProg.Players[NewProg.elected_list[k]].account] == 3) {\n                    uint amount = NewProg.tokensPerItem * NewProg.Players[NewProg.elected_list[k]].data_length;\n                    token.transfer(NewProg.Players[0].account, amount);  \n                    NewProg.elected[NewProg.Players[NewProg.elected_list[k]].account] = 4;                  \n                }\n            }\n        }\n    }\n\n    function updateCampaign(uint i, string[4] memory str_items, uint my_data_length, uint _MODL, uint min_reputation, uint tokens) external {\n        // str_items = [CA, IP, CRT, CN]\n        require(reputations[msg.sender] >= min_reputation, \"You required more reputation than the one you have.\");\n        require(token.balanceOf(msg.sender) >= tokens, \"You promised more tokens than the ones you have.\");\n        require (i <= last, \"There is no previous operation to update at this index.\");\n        CampaignData storage NewProg = Prog[i];\n        require (NewProg.CampaignState == StateType.Finished, \"This program has not finished yet. You cannot update it.\");\n        for (uint j = 0; j < NewProg.subscribed_players; j++) {\n            NewProg.elected[NewProg.Players[j].account] = 0;\n        }\n        NewProg.CA = str_items[0];\n        NewProg.reputation = min_reputation;\n        reputations[msg.sender] -= min_reputation;\n        NewProg.CampaignState = StateType.SubscribingTime;\n        NewProg.ready_players = 0;\n        NewProg.finished_players = 0;\n        NewProg.aborted = 0;\n        NewProg.succeeded = 0;\n        NewProg.scientist_vote = 0;\n        NewProg.subscribed_players = 1;\n        NewProg.MODL = _MODL;\n        NewProg.payment = tokens;\n        NewProg.current_data = my_data_length;\n        NewProg.Players[0] = PlayerData(\n            {\n                account: msg.sender,\n                IP: str_items[1],\n                CRT: str_items[2],\n                CN: str_items[3],\n                data_length: my_data_length,\n                reputation: min_reputation\n            }\n        );\n        // Before calling this function we need to call the approve(tokenaddress, amount) from Token.sol\n        token.transferFrom(msg.sender, address(this), tokens);\n        emit updated_campaign(i, NewProg.Files.INFO);\n    }\n}",
  "sourcePath": "/home/julen/julen/paper-tfm/SMPC-BCK/marketplace/contracts/marketplace.sol",
  "compiler": {
    "name": "solc",
    "version": "0.8.1+commit.df193b15.Emscripten.clang"
  },
  "schemaVersion": "3.4.14",
  "updatedAt": "2023-06-16T13:09:52.053Z",
  "networkType": "ethereum",
  "devdoc": {
    "kind": "dev",
    "methods": {},
    "version": 1
  },
  "userdoc": {
    "kind": "user",
    "methods": {},
    "version": 1
  }
}